:020000040800F2
:1000000068050020D5000008712A0008CF280008E4
:1000100000000000000000000000000000000000E0
:10002000000000000000000000000000752A000829
:100030000000000000000000732A0008772A000872
:10004000E7000008E7000008E7000008E7000008F4
:10005000E7000008E7000008E7000008E7000008E4
:10006000E7000008E7000008E7000008E7000008D4
:10007000E7000008E7000008E7000008E7000008C4
:10008000E70000080000000000000000E700000892
:1000900000000000E7000008E7000008E700000893
:1000A000E7000008E7000008E7000008213000082A
:1000B0002D300008000000000000000000000000DB
:1000C0000348854600F0C6FB00480047553000084D
:1000D000680500200448804704480047FEE7FEE723
:1000E000FEE7FEE7FEE7FEE7152B0008C10000086B
:1000F000F8B500242546002904DA0E460124002123
:100100004042B141002B04DA1E4600235242012531
:10011000B34100F068F98C4617461E46AC4203D046
:10012000002540428D41AC46002C02D000265742AB
:100130009E4161463A46334601B0F0BDF8B50246ED
:100140004A40D40F42004B0052085B089A4202D248
:100150000246084611464A0023D0C30D4A00DDB2CC
:10016000120EAD1A202D35DA49020126490AF6058C
:100170008A19002C00D0524220214F1B1146B94051
:100180002A411018C20D9A4221D0002C17D0012DFF
:1001900008DCDA05801AD20F8019D207DBB200F032
:1001A0005AF9F8BDDA05801A012340001B06C01871
:1001B00080185A428018CA0F1043490007E04908C6
:1001C000C2071143DA05801A80194008801800F030
:1001D0003AF9F8BD61000122511A001BF7E701222C
:1001E000D2075140AAE70122D2075040A6E70246B3
:1001F00070B54A40D30FDB0740002DD04A002AD00B
:10020000010E140E000212020919400A520A841843
:10021000E50104465443000A120A2E045043A4196F
:100220004219200CC543AA18120C0125AD03521C1B
:10023000521912047F39240400D0521C104301D4F7
:100240004000491EC2B20C06C0092018401C4008DC
:10025000802A02D003E0002070BD40084000002941
:1002600000DA0020184370BD70B502464A40D50F31
:1002700040004A00ED0740085208002814D0002A28
:1002800012D0C40DD30D41020120C0055202490A0B
:10029000520AE41A091812187D34914201D3641CE1
:1002A00000E04900002C01DA002070BD00239142DB
:1002B00001D3891A0343400849000028F7D10029D7
:1002C0000AD0914202D10121C90705E0914201D231
:1002D000012101E00121C943E005C018401900F0E7
:1002E000B2F870BD0122D207002800DB101A0029E5
:1002F00000DB511A814201D801207047002070476D
:100300000122D207002800DB101A002900DB511A55
:10031000814201D901207047002070470122D20795
:10032000002800DB101A002900DB511A814201D19C
:100330000120704700207047C217C10F504010B510
:100340004018CA079623002100F085F810BDC20F9F
:10035000410040020123400ADB05D207090EC01804
:100360007F2901DA00207047962903DC9623591A69
:10037000C84001E096398840002AF4D040427047D6
:10038000C20FD207400040080BD0C10D0723DB018C
:10039000C91840020905400A1143C2084007114329
:1003A000704700200146704770B50446002903D00D
:1003B00000202022012310E0002801D00020C043AB
:1003C000C046C0460DE02546D5408D4205D30D46BA
:1003D0009540641B1D46954040191546521E002D40
:1003E000F1DC214670BDF0B51FB40646002082B096
:1003F00005464024019100901BE0019922460F46DA
:10040000304600F04FFA049A059B801A994110D3A8
:1004100010461946224600F035FA361A8F410197E8
:10042000224601200021009F00F02CFA38184D418F
:1004300000902046641E0028DFDC019B00982946BE
:10044000324607B0F0BD002904DA401C490001D152
:1004500040084000704770B40024050C05D11024FA
:10046000000402D1002921D01124050E01D100027F
:100470000834050F01D10001241D850F01D1800032
:10048000A41C002801DB4000641C002908D02025A2
:100490002E1B0D46F540A14000D001212943084301
:1004A00001061B1B000ADB1D02D5002070BC704733
:1004B000DB05181880180029F8DA401C4900F5D12E
:1004C00070BC400840007047F0B5074608465840E9
:1004D00087B0C00F049048000E46590040084908F4
:1004E000BC1A884105D2384631461E4617460B468F
:1004F00002465800400810434CD0300D0390400590
:100500005900400D490D0590401A0290402872DABA
:1005100018030121000B090508430190049800927B
:10052000002805D001995242002088410092019094
:10053000029840210A1A0199009800F0A3F9054693
:100540000C466B4607CB00F0BEF9C0197141039A07
:100550000E0D0023D71756401A467A40164344D052
:10056000049A002A2DD0029A012A039A15DC12055A
:10057000C01A914101263605001C7141D20F059E1B
:10058000D2070093019202962A46234600F0BBF957
:1005900007B0F0BD38463146FAE71605224A0F4645
:1005A000B218C01AB74101210905001C4F410018BB
:1005B0007F41114618187941E20F10436D196441CB
:1005C00013E0E2076D0815436408C2071443039A59
:1005D00001261205C01A91413605001C7141CE0753
:1005E000400830434908C01851412A46234600F0CC
:1005F0007DF9CDE7FFE7049801224000C117121AE8
:1006000000238B4104983146C417381AA141EEE704
:1006100030B40124E407634030BC55E730B4012412
:10062000E407614030BC4FE70000E0FFF0B51FB4C5
:1006300088B00B990998002448400999C00F4900D7
:1006400049080991C0070B990090490049080B918E
:1006500009990898A64608431CD00B990A980843A4
:1006600018D0099801244000420D4800410D099816
:1006700024050003000B204309900B980003000B96
:1006800020430B9050181C4940180022019014463A
:10069000104605E0002001460DB0F0BD032801DA48
:1006A000034600E003239C46C11A0AAE0AE05F003D
:1006B00008ADED5B4F00F75B7D430027AA187C4136
:1006C000491C5B1E6145F2DD410004AB5A52210416
:1006D000120C0A43240C401C0828DFDB019802900E
:1006E0000099704601910090059B049A079906981D
:1006F00000F009F9D0E700000DFCFFFFF0B50C4653
:100700005C4085B0E40FE40703944C0000266408C5
:1007100059009446490802460296224321D0624677
:100720000A431ED06200570D4A000E032303550DE5
:10073000012402462C492405781B1B0B360B40185C
:1007400023432643614600901C46501AB44103D30C
:100750000098401C009002E0921800985B4100282D
:1007600003DA0020014605B0F0BD00200121090593
:100770000746864611E064461D46141BB54106D364
:100780006546521BB341744607430C43A646CD074A
:1007900040084908284392185B4105460D43EAD1B9
:1007A0001046184313D06046194650407140084324
:1007B00006D06046101AB34106D20122002306E09B
:1007C00000220123DB0702E00122D24353100098EC
:1007D00074460105381C6141029C039D0019694162
:1007E00000F084F8BFE70000FD0300004A000903A1
:1007F0000123090B1B0519430A4B10B5520D9A42F0
:1008000002DA0020014610BD064B34339A4203DC65
:100810009A1A00F047F810BD034BD21800F032F8D6
:1008200010BD0000FF030000CDFBFFFF10B5002945
:1008300004DB0124E40740428C412146002B04DB09
:100840001C460123DB075242A341994200D190424A
:1008500010BD00001CB509480090094801900546EC
:100860000126009C05E0E36807CC33430C3C984725
:100870001034AC42F7D3FFF727FC0000903D00088E
:10088000B03D000810B5202A04DB0146203A914013
:10089000002010BD914020239C1A0346E3401943D9
:1008A000904010BD10B5202A04DB0846203AD04005
:1008B000002110BD0B46D340D0402024A21A914005
:1008C0000843194610BD10B5202A06DBCB17084691
:1008D000203A1041C1170B4306E00B461341D040AC
:1008E0002024A21A91400843194610BD10B5002BD0
:1008F00008DA0024401C614192185B411A4301D17F
:100900004008400010BDF0B51FB482B005460C0091
:1009100003D0084602F01EFD02E002F01BFD20306D
:100920000246009021462846FFF7ACFF049B059A3B
:1009300004460F4618431143084314D01846104389
:100940001BD0009840210A1A18460599FFF7AAFF04
:1009500005460E46009A05990498FFF793FF084351
:1009600005D0012004E02046394607B0F0BD002044
:10097000C11705430E432C43374300990E98630576
:10098000401A7905E40A00220C43FD0A0A3002D518
:1009900000200146E9E70105101969410C9C0D9DF5
:1009A00000196941FFF7A2FFDFE70000F0B581B051
:1009B0000646C0480568002428462146FFF7AEFCDD
:1009C0000746BF480068301AFFF7B6FC2946FFF714
:1009D0004BFC002F00D10446204601B0F0BDC046BC
:1009E000F0B583B02B4C20260025204631462A4600
:1009F00000F021FF0127384600F038FE204631463E
:100A00003A4600F018FF01951920060101980009E7
:100A1000182817D80198401C01900198B04211D2B3
:100A20000198401C01900198B0420BD20198401CE3
:100A300001900198B04205D20198401C01900198A4
:100A4000B042E7D3202120462A4600F0F4FE02956A
:100A50000298B04217D20298401C02900298B0420D
:100A600011D20298401C02900298B0420BD2029818
:100A7000401C02900298B04205D20298401C02909D
:100A80000298B042E7D320210122204600F0D3FE95
:100A900003B0F0BD00040050F0B583B0052004079A
:100AA00000F0D2FE0546C8354021204600F0B6FED3
:100AB000012807D100F0C8FEA842F5D90025284634
:100AC00003B0F0BD0020009002900298072817D8CC
:100AD0000298401C02900298072811D80298401CE6
:100AE0000290029807280BD80298401C02900298A6
:100AF000072805D80298401C029002980828E7D3DE
:100B000072B6009D2F4605E0019949000D187F1C23
:100B1000182F4DD0019520210122204600F08BFE98
:100B20000098029002980F2817D80298401C029053
:100B300002980F2811D80298401C029002980F28A2
:100B40000BD80298401C029002980F2805D80298F2
:100B5000401C029002981028E7D34021204600F064
:100B60005DFE0546202100262046324600F063FE49
:100B70000296691E4842484102990F29C4D8029939
:100B8000491C029102990F29BED80299491C029171
:100B900002990F29B8D80299491C029102990F298C
:100BA000B2D80299491C029102991029E7D3ABE708
:100BB00020210122204600F03EFE029602980F28D6
:100BC00017D80298401C029002980F2811D802985A
:100BD000401C029002980F280BD80298401C0290EB
:100BE00002980F2805D80298401C029002981028FD
:100BF000E7D320212046324600F01DFE02960298DF
:100C00000F2817D80298401C029002980F2811D87C
:100C10000298401C029002980F280BD80298401CA2
:100C2000029002980F2805D80298401C0290029862
:100C30001028E7D30198400202D5FF2000060543A3
:100C400062B6284603B0F0BD70B5FFF725FF044635
:100C5000C517FFF721FFC61724186E41FFF71CFFC9
:100C6000C51724187541FFF717FFC61724186E41E2
:100C7000FFF712FFC51724187541FFF70DFFC617C0
:100C800024186E41FFF708FFC51724187541FFF7B8
:100C900003FFC11720186941CA17520F002380189B
:100CA0004B415907C008401870BD00000149086059
:100CB0007047C04610000020014908607047C046D8
:100CC00034000020F0B5A5B0F4A002F0BFFFFFF79C
:100CD000E3FE019011900A24204600F0C7FCFFF7C4
:100CE000DBFE00901290204600F0C0FCFFF7D4FE1F
:100CF00002901390204600F0B9FCFFF7CDFE109053
:100D00001490204600F0B2FCFFF7C6FE0F9015903D
:100D1000204600F0ABFCFFF7BFFE0E901690204679
:100D200000F0A4FCFFF7B8FE0D901790204600F0ED
:100D30009DFCFFF7B1FE0C901890204600F096FC49
:100D4000FFF7AAFE0B901990204600F08FFCFFF7EA
:100D5000A3FE0A901A90204600F088FCFFF79CFE44
:100D600009901B90204600F081FCFFF795FE08904B
:100D70001C90204600F07AFCFFF78EFE07901D9035
:100D8000204600F073FCFFF787FE06901E90204679
:100D900000F06CFCFFF780FE05901F90204600F0ED
:100DA00065FCFFF779FE04902090204600F05EFC81
:100DB000FFF772FE05462190204600F057FCFFF732
:100DC0006BFE06462290204600F050FCFFF764FEC2
:100DD00007462390204600F049FCFFF75DFE039094
:100DE0002490204600F042FC009B019A9342184652
:100DF00000DAA3E01046029C8442214600DBA2E018
:100E00001098884200DAA3E008460F99814200DB7F
:100E1000A2E00E98884200DAA3E008460D998142CC
:100E200000DBA2E00C98884200DAA3E008460B99A8
:100E3000814200DBA2E00A98884200DAA3E008467B
:100E40000999814200DBA2E00898884200DAA3E019
:100E500008460799814200DBA2E00698884200DA42
:100E6000A3E008460599814200DBA2E0049888428D
:100E700000DAA3E008468542294600DBA2E08E4264
:100E8000304600DAA3E008468742394600DBA2E09C
:100E90000398884200DAA3E00846934200DCA2E00F
:100EA0009C42109900DDA3E01C46A1420F9A00DC91
:100EB000A2E08A4200DDA3E00A460E99914200DCDE
:100EC000A2E00D9A8A4200DDA3E00A460C99914205
:100ED00000DCA2E00B9A8A4200DDA3E00A460A99F0
:100EE000914200DCA2E0099A8A4200DDA3E00A46B2
:100EF0000899914200DCA2E0079A8A4200DDA3E053
:100F00000A460699914200DCA2E0059A8A4200DD79
:100F1000A3E00A460499914200DCA2E08D4200DD84
:100F2000A3E00D46AE4200DCA2E0B742039900DD2B
:100F3000A3E03746B94200DCA1E0A1E0029C844274
:100F4000214600DA5CE701461098884200DB5BE747
:100F50000F99814200DA5CE701460E98884200DB77
:100F60005BE70D99814200DA5CE701460C98884204
:100F700000DB5BE70B99814200DA5CE701460A98E7
:100F8000884200DB5BE70999814200DA5CE70146B1
:100F90000898884200DB5BE70799814200DA5CE74A
:100FA00001460698884200DB5BE70599814200DA3A
:100FB0005CE701460498884200DB5BE785422946EE
:100FC00000DA5CE701468E42304600DB5BE7874291
:100FD000394600DA5CE701460398884200DB5BE7AC
:100FE000934200DD5CE713469C42109900DC5BE70E
:100FF000A1420F9A00DD5CE721468A4200DC5BE7F4
:101000000E99914200DD5CE711460D9A8A4200DCA0
:101010005BE70C99914200DD5CE711460B9A8A422E
:1010200000DC5BE70A99914200DD5CE71146099A12
:101030008A4200DC5BE70899914200DD5CE71146DB
:10104000079A8A4200DC5BE70699914200DD5CE783
:101050001146059A8A4200DC5BE70499914200DD63
:101060005CE711468D4200DC5BE7AE4200DD5CE7E9
:101070002E46B742039900DC5BE7B94200DC3946F3
:10108000091A36480D9102F055F9354E741C7D2031
:1010900080000E9000252B462A4616E054617261AE
:1010A0006E646F2E2E2E2041677561726465206517
:1010B00073746162696C69646164652E0D0000007F
:1010C0002D1D502D04463E4616D00F921093FFF76B
:1010D000E3FC074611A847510A2000F0C7FA0F9A0F
:1010E000109BF817DB194241A742384600DC204626
:1010F000B742E5DB3746E3E7C11B1A4D0E98814244
:1011000005DA0D9C844202DA17461E46F5E01348C4
:101110000D9102F00FF9124E771C00252B462A463E
:1011200004E02D1D502D074626461DD00F9210932A
:10113000FFF7B2FC044611A844510A2000F096FAC9
:101140000F9A109BE0171B194241BC42204600DC5D
:101150003846B442E5DB3446E3E7C046F43C0008D9
:10116000FFFFFF7F2C3D0008011B0E98451EA94282
:1011700003DC0D9C844200DABCE00D95DD480C9147
:1011800002F0D8F8DC4E741C00252B462A4604E0F9
:101190002D1D502D04463E4616D00F921093FFF79A
:1011A0007BFC074611A847510A2000F05FFA0F9A0E
:1011B000109BF817DB194241A742384600DC204655
:1011C000B742E5DB3746E3E7C11B0D980C9C844230
:1011D00003DC0E98814200DA8CE0C6480C9102F0E4
:1011E000A9F8C54E771C00252B462A4604E02D1D84
:1011F000502D0746264616D00F921093FFF74CFC51
:10120000044611A844510A2000F030FA0F9A109BAE
:10121000E0171B194241BC42204600DC3846B4426C
:10122000E5DB3446E3E7011B0E98814202DA0C9CB1
:1012300084425FDBAF480B9102F07CF8AE4E771C26
:1012400000252B462A4604E02D1D502D0746264634
:1012500016D00F921093FFF71FFC044611A84451BB
:101260000A2000F003FA0F9A109BE0171B19424165
:10127000BC42204600DC3846B442E5DB3446E3E7B6
:10128000011B0E980C9C844204DB0B9C844201DA07
:1012900081422FDB97480C9102F04CF8964E771C58
:1012A00000252B462A4604E02D1D502D07462646D4
:1012B00016D00F921093FFF7EFFB044611A844518C
:1012C0000A2000F0D3F90F9A109BE0171B19424136
:1012D000BC42204600DC3846B442E5DB3446E3E756
:1012E000011B0E980B9C844216DB0C9C844213DA83
:1012F000814211DA17461E46804D142200233046E3
:101300003946FEF7F5FE0146954C2060284602F06E
:1013100011F8206825B0F0BD76480B9102F00AF86C
:10132000754E771C002529462A4604E02D1D502DB8
:101330000746264616D00F921091FFF7ADFB0446E4
:1013400011A844510A2000F091F90F9A1099E01762
:1013500009194241BC42204600DC3846B442E5DB74
:101360003446E3E70E46011B0E980C9B834206DBD6
:101370000B9B834203DA814201DA1746BCE75D48E2
:101380000C9101F0D7FF5C4E771C00252B462A46B6
:1013900004E02D1D502D0746264616D00F921093BF
:1013A000FFF77AFB044611A844510A2000F05EF9C9
:1013B0000F9A109BE0171B194241BC42204600DCEB
:1013C0003846B442E5DB3446E3E7011B0D98814221
:1013D0000E9C05DC0B98A04202DB0C98A04289DB36
:1013E00044480B9101F0A6FF43494A1C00252E46B4
:1013F0002F4605E00E462D1D502D0246214616D0E3
:101400000F921091FFF748FB044611A844510A209F
:1014100000F02CF90F9AE017311947419442204609
:1014200000DC1046109EB442E4DB3446E2E7011BC8
:101430000C980E9A9042314D0D9805DB814203DCE9
:101440000B9A824200DC58E72A4801F073FF2CA077
:1014500002F0FCFB1298C117119AD31710184B41D8
:101460001399CA1740185A411499CB174018534181
:101470001599CA1740185A411699CB17401853416D
:101480001799CA1740185A411899CB174018534159
:101490001999CA1740185A411A99CB174018534145
:1014A0001B99CA1740185A411C99CB174018534131
:1014B0001D99CA1740185A411E99CB17401853411D
:1014C0001F99CA1740185A412099CB174018534109
:1014D0002199CA1740185A412299CB1740185341F5
:1014E0002399CA1740185A412499CF1746185741D3
:1014F00013A502E7F43C0008FFFFFF7F2C3D000826
:10150000415649534F3A2042616C616E6361206ECF
:10151000616F206573746162696C697A6F752E20E2
:101520005573616E646F20756C74696D61206D65B3
:1015300064696120636F6D6F20746172612E0D00AC
:101540005461726120636F6E636C75696461212000
:101550004F6666736574203D20256C640D0A00009B
:101560003400002072B6054C01204102204600F0F4
:101570005AF9C82000F07AF8F6E7C0460008005093
:1015800070B500282CD0014624314A78022A29D18E
:10159000046822680E239A432260426C1568314B1E
:1015A0001D4015602568012295432560046C1C25AB
:1015B00025401446AC402C4D2E6826432E60846C8A
:1015C000C56C6560046D002C05D025681D40256044
:1015D000436D806D58604A70002000220A7070BD13
:1015E000012070BD0422C263012000220A7070BD78
:1015F00070B5242101244454014624314A78022A3A
:101600002BD103681A680E24A2431A601C680122B9
:1016100094431C60446C2568124B1D402560046C8B
:101620001C2525401446AC400F4D2E6826432E60E5
:10163000846CC56C6560046D002C05D025681D4068
:101640002560436D846D5C6000240C704A70816B72
:10165000002900D08847204670BD0421C163204680
:1016600070BDC046FFFEFFFF04000240B0B5044657
:1016700000F0EAF80546601C02D090480078241873
:1016800000F0E2F8401BA042FAD3B0BDF0B58AB03A
:10169000069009910B68002B00D1B4E05B480699D5
:1016A000814201D0062000E005200B221207069996
:1016B00089180A22D1410091042900D3009006988C
:1016C0002030019000252E46079529460FE01A4349
:1016D00062600899491C099803681846C840083593
:1016E000B61C079A121D0792002800D18BE0012436
:1016F00020460891884003400393EAD00495099955
:101700004A6810211143122915D11C21079A114052
:1017100005960F2632468A40089BDB089F00019BF6
:10172000DD599543099A12693240059E8A402A4341
:10173000DA5109994A68032311461940B1400293CE
:10174000B3403746069E35689D430D4335603E469F
:10175000D9430591122A049D15D894402E490C4274
:101760000FD0069CA168059B1940099BDB68B3401C
:101770000B43A3601109089B9940636883430B43A3
:101780006360032AA5D0069BD8680599084009998B
:101790008968B1400143D960D0009AD5182028400B
:1017A0000F218140089A029B9A43194CA218136E8C
:1017B0008B430099814019431166164802680998C5
:1017C0004068C10302D5039B1A4301E0039B9A437F
:1017D00010490A604A68810301D51A4300E09A4320
:1017E0000C494A602268C10205D51A43226062682A
:1017F000800206D56BE79A4322606268800200D5BA
:1018000065E79A4364E70AB0F0BDC0460014005093
:1018100000180240801802400600060000690840D7
:10182000411E8841704742690B4693430A401104A8
:10183000C91881617047002A02D018228150704770
:101840002822815070470000054800687047C04654
:101850001A48007802490A68101808607047C046A4
:101860006001002080B5032000F008F8002801D0B6
:10187000012080BD00F024F8002080BD70B50F4E1F
:1018800031780124002916D005467D20C000FEF7DE
:101890008BFD0146F0480068FEF786FD00F0BAFBBC
:1018A000032D08D8002806D10024E043294622460B
:1018B00000F028F87560204670BDC0460400002086
:1018C00082B00948416801221143416041681140DA
:1018D00001910199110702680A43026000680840FB
:1018E0000090009802B070473C100240002805D4D8
:1018F0001F21084001218140014801607047C04616
:1019000000E100E0002805D40322034693430A4A7D
:101910009A1803E00C220240064BD2188007C00E32
:101920008901C9B28140FF2383401068984308436E
:101930001060704714ED00E000E400E0F0B585B001
:101940000446007840064C4E01D4002035E00120CA
:1019500001073746203F3A6803910A40029207D1B7
:101960003968039A11433960396811400491049928
:10197000032101910A023168114010D0E2699142BD
:101980000DD031680004326802433260326882430D
:1019900032600846394A10403060C8075AD1306872
:1019A00036490840E169014331600020029900296D
:1019B00003D13968039A914339602168CA070BD172
:1019C0008A0713D48A061CD40A0725D44A072DD4C3
:1019D000090636D405B0F0BD3246083A136803252F
:1019E000AB43A5681D4315608A07EBD5032212039C
:1019F0003346083B1D689543E2682A431A608A060D
:101A0000E2D5032292073346083B1D689543A2693D
:101A10002A431A600A07D9D501221203331F1D6811
:101A2000954362692A431A604A07D1D5032292037B
:101A30003346083B1D68954322692A431A6009060C
:101A4000C8D55C3E3168E022914362680A43326047
:101A500005B0F0BDFFF7F8FE0546306880079ED45C
:101A6000FFF7F2FE401B7B498842F6D901980299A4
:101A700000299ED0A1E7C0465C100240FFFCFFFF9A
:101A8000F0B583B00D460146012000296BD00291CC
:101A900001906F48006807273840854215D96C4986
:101AA0000868B843284308606A4CFFF7CDFE064635
:101AB000674800683840A84207D0FFF7C5FE801B82
:101AC000A042F5D9032003B0F0BD029B186881073E
:101AD0009F4C10D5410707D57B21090222688A4314
:101AE0000B210902511821600F21090222688A4343
:101AF000D96811432160C0071AD1554800683840A1
:101B0000854232D252490868B84328430860514C94
:101B1000FFF79AFE06464E4800683840A84224D097
:101B2000FFF792FE801BA042F5D9032003B0F0BD61
:101B30002246083A10681C218843996801431160C5
:101B40005968032943D8880001A31B5801989F4670
:101B5000611B0008C71B0008B71B0008BF1B00085B
:101B60001268520537D403B0F0BD029A10784007CE
:101B7000774C05D5380321688143106908432060FC
:101B800020460838016822689206520F06D0226863
:101B900038200240082A07D16E4842E000688004DD
:101BA000420F6D48D0403CE022680240202A2AD1F2
:101BB0000120C00335E012681202D4D50BE0A26DFB
:101BC0009207D0D507E012689203CCD503E0606D90
:101BD00080070198C7D52068B84308432060FFF705
:101BE00033FE064620683821014002984068C00054
:101BF000814282D0FFF728FE801B16498842F1D926
:101C0000032003B0F0BD22680240182A02D17D20D3
:101C1000000206E022680240102A01D0002000E005
:101C20004D48C906490F491CFEF7BEFB21688909CA
:101C30003C220A402B4989581F220A40D040F249D1
:101C40000860F2480068FFF719FE03B0F0BDC04617
:101C500000200240881300000C00002010B53C4C0E
:101C600020460838016822689206520F06D0226882
:101C700038200240082A07D136481AE0006880045C
:101C8000420FE048D04014E022680240202A02D1EE
:101C90000120C0030DE022680240182A02D17D20F5
:101CA000000206E022680240102A01D0002000E075
:101CB000D448C906490F491CFEF776FB21688909FB
:101CC0003C220A40074989581F221140C840CE498A
:101CD00008602168890A1C230B400349C958114038
:101CE000C84010BD6C3C0008AC3C000880B51848EA
:101CF0000246083A116803689B065B0F06D003682A
:101D000038221340082B07D112481AE010688004CB
:101D1000420FBC48D04014E003681340202B02D18E
:101D20000120C0030DE003681340182B02D17D2071
:101D3000000206E000681040102801D0002000E0FA
:101D4000B048C906490F491CFEF72EFB80BDC046AE
:101D50000810024000127A00006CDC02F0B581B07D
:101D600004460120002C00D148E100902078C007F3
:101D7000A34E08D0B068382202406168082A4BD1CF
:101D8000002900D190E02078800721D42078000736
:101D900009D5B06838220240A169182A00D086E02F
:101DA000002900D180E0207840070AD5B0683822A9
:101DB0000240A168202A00D08DE00029009800D1BF
:101DC0001CE120780025C00637D4284601B0F0BDBC
:101DD000E268B0688006400F47D0306801218F026A
:101DE000002A00D184E00722D202904322690243F4
:101DF00032600802316801433160FFF725FD054676
:101E00003068384200D09BE0FFF71EFD401B0228DF
:101E1000F6D9032001B0F0BD306801235F041A0435
:101E2000914207D005252D04A94272D19904084397
:101E3000306030681043306073E030680121CF05B6
:101E4000E2698905002A00D183E008433060FFF78A
:101E5000FBFC044630683842B7D1FFF7F5FC001BA5
:101E60000228F7D9032001B0F0BD002A1CD07F2042
:101E700000027168814360690002084370600720B6
:101E8000C0023168814320690843306030688004B3
:101E9000400F5C49C1405C4801605C480068FFF746
:101EA000EDFC002800D171E7009801B0F0BD306E64
:101EB00000295ED0012108433066FFF7C5FC0546C6
:101EC000306E800700D56EE7FFF7BEFC411B032094
:101ED0000229F5D992E0F06D012905D0052959D1E3
:101EE00004210843F065F06D01210143F1655AE0DA
:101EF000090288433060FFF7A7FC05463068384286
:101F000000D143E7FFF7A0FC411B03200229F5D9CC
:101F100074E0904330609804326882433260002954
:101F200050D0FFF791FC05463068384200D02AE7D0
:101F3000FFF78AFC401B6428F6D9032001B0F0BDEE
:101F40007F2000027168814360690002084370606D
:101F50001CE788433060FFF777FC0446306838425E
:101F600000D132E7FFF770FC011B03200329F5D3F2
:101F700044E0012188433066FFF766FC0546306E79
:101F8000800700D40FE7FFF75FFC411B0320022905
:101F9000F5D933E001229043F065F06D04229043BF
:101FA000F06500291CD01A4FFFF74EFC0546F06D76
:101FB000800700D505E7FFF747FC411B0320B94226
:101FC000F5D91BE0FFF740FC05463068384200D1E8
:101FD000D9E6FFF739FC411B03206429F5D90DE050
:101FE0000B4FFFF731FC0546F06D800700D4E8E6A3
:101FF000FFF72AFC411B0320B942F5D901B0F0BD1F
:1020000000100240006CDC020C00002008000020E0
:1020100088130000401E010E01D0012070470749BF
:10202000074A5060074803680B4003218907591885
:10203000016000209060072111607047FFFFFF00E2
:1020400010E000E020ED00E0B0B58421415C012902
:1020500001D10220B0BD0146843124224A600268C9
:10206000136814680125AC4314606C07A343136024
:102070000022426610460A7020224A60B0BD7047B6
:1020800070470000F0B583B0054668352A7F012A05
:1020900002D1022003B0F0BD064688362422326009
:1020A00007683A6802923A680124A2433A6007221C
:1020B0005206BB6893430B43BB60406E002820462A
:1020C00015D0B8680190B868400F2E49095C2E4AB7
:1020D000105CC000FEF768F9044601980001400F4B
:1020E0002849095C284A105CC000FEF75DF9288089
:1020F0006C8002983860002028772021316003B07E
:10210000F0BDC046F0B583B0054668352A7F012A88
:1021100002D1022003B0F0BD064688362422326088
:1021200007683A6802923A680124A2433A6007229B
:102130005207BB6893430B43BB60406E00282046A8
:1021400015D0B8680190B868400F0E49095C0E4A76
:10215000105CC000FEF728F9044601980001400F0A
:102160000849095C084A105CC000FEF71DF9288088
:102170006C8002983860002028772021316003B0FD
:10218000F0BDC046EC3C0008E43C000870477047D6
:1021900070470000F0B589B00368DF692025012190
:1021A0000691CE0232462F323A4019680890044612
:1021B000803405939B68202A0495079710D1084620
:1021C0002840012212071A4080181F4616D008988E
:1021D000416F002900D158E10898884709B0F0BD47
:1021E00030460F3007421F4608D0CF480840069AB5
:1021F0001207551C3D40281800D091E0039410268A
:102200000846304042424241079D28463040444201
:10221000444114430898C06E401E421E9041204322
:1022200037D001240126B2053A4050425041EA021B
:102230002246059B00D50246002A00D1A6E02806CA
:1022400006D580200840F2051740C01900D0BDE136
:1022500040230A461A40504250416A06224600D5A1
:102260000246002A00D14AE1B2070A4050425041DA
:102270002A02224600D50246002A00D1B1E10029F7
:1022800000DAB3E1E80100D5B4E1002C00D0FCE0B5
:10229000B4E1089C5C34059806628068400600D56D
:1022A0007BE0618822886088002800D1EDE08A42C6
:1022B00000D1EAE0EFF310800790012383F3108848
:1022C000092045010898374606683468AC433460F5
:1022D000079C84F31088EFF31084079483F310882D
:1022E0000568AE68C84C3440AC60079C84F3108825
:1022F000049C039DEC6000244467C466EFF31084E3
:1023000083F3108803681D68BD431D6084F3108843
:1023100002230367511A89B2FFF7B1FE09B0F0BD7D
:10232000009203940798069B1840424242411802CB
:1023300001910840444244411443059B05D10120CA
:102340001862039C22690243226101203C460290EC
:1023500004406042604107998A07069A00D5024608
:10236000002A06D1022018620398016904220A4358
:1023700002616042604107994A07069A5ED4002ACA
:10238000039C5FD00798000765D46EE030051862A3
:102390000898FFF7FCFE09B0F0BD2288039800689A
:1023A0000068436899B2002900D19CE0914200D3B3
:1023B00099E063800068800635D4EFF31082012134
:1023C00081F31088924B20330898056837462E68B1
:1023D0001E402E6082F31088EFF3108281F3108884
:1023E00003689D688D439D6082F31088EFF310822F
:1023F00081F3108803689D684026B5439D6082F391
:102400001088039B049ADA600022C266EFF3108200
:1024100081F3108800680168B943016082F3108875
:102420001868FFF7ADF802210898016721886288D3
:10243000891A89B2FFF723FE09B0F0BD0246002ACF
:10244000039C9FD10420186220690222024322616A
:102450000798000709D50198049A1040054304D055
:1024600008201862226902432261029882060199BB
:102470000A4050425041079A324208D1069800283B
:10248000049A09D0206900280DD109B0F0BD06904A
:1024900006980028049AF5D11E6220691043206135
:1024A00020690028F1D0079810400DD01140009805
:1024B00007400F4308D00898416F002904D0089CBA
:1024C000204688472368039C206928220240986898
:1024D00040210840801829D10898FFF759FE0020B4
:1024E000206109B0F0BD8A42CFD100688006CCD50A
:1024F000022208980267FFF7C2FD09B0F0BDEFF3B2
:10250000108186F310880898026814689C43146050
:1025100081F31088002181670399049A8A6000F092
:10252000D5F909B0F0BDC04620010004EFF31080DA
:10253000029E86F3108809225201089B1C682568B8
:102540009543256080F31088EFF3108086F31088A0
:102550001A6894682C4D2540956080F31088D86ED9
:1025600001280CD1EFF31082029880F310880898AC
:10257000006803681024A343036082F31088039C5F
:102580000498E0600020089AD06650671068806860
:10259000400621D5EFF31082029880F31088089846
:1025A000006883688B43836082F310882168002968
:1025B00012D0164888630846FFF71AF8002800D1A1
:1025C00063E72068816B884709B0F0BD0898816F88
:1025D000002900D000E658E70898FFF7D9FD09B0B8
:1025E000F0BD0898FFF7D2FD09B0F0BD0026E80164
:1025F00000D44AE63446002C00D046E70898FFF79E
:102600003FFD09B0F0BDC046FEFFFFEFC92C00083A
:10261000DFFEFFFFB0B500281ED004460546843516
:102620006868002804D100202870204600F02AF8AD
:1026300024206860206801680125A9430160A06A20
:10264000002802D0204600F06DFA204600F044FB3E
:10265000002803D02846B0BD0120B0BD0920C0022B
:1026600021684A6882434A6088682A2290438860C9
:102670000868012202430A60204600F0BDFA0546C0
:102680002846B0BDB0B58EB000240D940C940B94C8
:102690000A94099408940794069405940494039466
:1026A000029401940068F14988421FD0D5498842BC
:1026B00042D10125019501A8FFF740F9002801D07A
:1026C000FEF750FFA803B449CA680243CA60CA684B
:1026D0000240009200980868284308600868284073
:1026E000009000981B250420032112E001204104E2
:1026F000A94A93680B43936093680B400093009939
:1027000011680143116011680140009100991C2576
:102710000C210D900C940B9402200A900991052035
:10272000000709A9FEF7B2FF284621462246FFF717
:10273000E9F82846FFF7DAF80EB0B0BDF0B585B07D
:10274000074688203858202810D1012000290BD0B6
:10275000002A09D001200403BD68A54209D1CD0794
:1027600007D03D69002D04D105B0F0BD022005B0B1
:10277000F0BD019302913D46543539468831002021
:10278000039088602120009108601646FFF75CF8EE
:1027900004906E802E80B868A04202D1386900286B
:1027A0005ED0029C019E039A3968688800285ED03A
:1027B000701C454B2ED0002E49D00392C8690006EC
:1027C00008D4FFF741F80499401AB04267D8396835
:1027D0000868F3E7002C03D020788862641C07E0C7
:1027E000039A1088384B18408862921C0392002488
:1027F0006888401E688068880028DFD137E010882C
:1028000018408862921C00246888401E688068888E
:1028100000282CD0C869000608D4C869000605D471
:10282000C869000602D4C8690006F3D5002CE6D0BA
:1028300020788862641CE7E7108818408862921C40
:1028400000246888401E6880688800280FD0C86906
:10285000000622D5002CEFD020788862641CF0E7B7
:102860000024029A019E396868880028A0D1CA69AC
:102870000020520614D4002E0FD0721C15D1009BDC
:10288000CA6952060DD4CA6952060AD4CA695206E8
:1028900007D4CA695206F3D503E0FEF7D5FF03203B
:1028A000009B2021196005B0F0BD0446FEF7CCFF67
:1028B0000499401AB042F2D838680168C0694006ED
:1028C000F4D52046ECE7C046FF0100007047FEE764
:1028D000F0B589B0002408940794069405940494F4
:1028E0002D480168042211430160016811400391E1
:1028F0000399016801273943016001683940039158
:10290000039901680222114301600068104003909E
:102910000398052000070190202529462246FEF74E
:102920008AFF790202917A482246FEF784FF1B480B
:10293000294600952246FEF77EFF06970594780308
:10294000049004AE72483146FEF7A0FE0794069448
:1029500005970495019D28463146FEF797FE06949B
:1029600005944020049028463146FEF78FFE0794D8
:10297000069405970298049065483146FEF786FE56
:102980000794069405970098049004483146FEF792
:102990007DFE09B0F0BDC046341002400004005076
:1029A00010B5174800210C22164B0162416281626A
:1029B000E124640218C0016041608160C26001616D
:1029C00041610838FFF726FE002801D0FEF7CAFD56
:1029D0000B480021FFF796FB002801D0FEF7C2FD4F
:1029E00007480021FFF74EFB002801D0FEF7BAFD93
:1029F0000348FFF729FB002801D0FEF7B3FD10BD07
:102A0000380000200038014010B5174800210C2282
:102A1000164B016241628162E124640218C00160C8
:102A200041608160C260016141610838FFF7F2FDD9
:102A3000002801D0FEF796FD0B480021FFF762FB4E
:102A4000002801D0FEF78EFD07480021FFF71AFB92
:102A5000002801D0FEF786FD0348FFF7F5FA0028AD
:102A600001D0FEF77FFD10BDCC00002000440040E7
:102A7000FEE77047704780B5FEF7EAFE80BD0000B4
:102A800070B58EB000240D940C940B940A940994A4
:102A90000894079406940594049403940294019472
:102AA0001A4801680726B143016040200B900125B8
:102AB00028030A90280209900220069006A8FFF732
:102AC0004DF900280AD072B66C02114D28462146F5
:102AD000FEF7A9FEC820FEF7C9FDF7E702940196AC
:102AE00003940494059401A82146FEF7C9FF002829
:102AF0000AD072B66C02064D28462146FEF793FEB8
:102B0000C820FEF7B3FDF7E70EB070BD002002400D
:102B1000000800500120C006014908607047C04607
:102B200008ED00E0B0B5816A0A070CD4CA0714D1D9
:102B30008A071CD44A0724D4CA062CD48A0634D463
:102B40004A063CD44CE00122D20303685C689443FB
:102B5000826B22435A60CA07EAD0012252040368FA
:102B60005C689443C26A22435A608A07E2D5012214
:102B7000120403685C689443026B22435A604A075C
:102B8000DAD50122920403685C689443426B2243C5
:102B90005A60CA06D2D50122120303689C68944386
:102BA000C26B22439A608A06CAD501225203036887
:102BB0009C689443026C22439A604A0610D5012215
:102BC0001305026854689C43456C2C4354609D4235
:102BD00006D103235B0554689C43836C23435360F5
:102BE000090607D50121C904026853688B43C06CEC
:102BF00018435060B0BD0000F0B583B004460646EF
:102C000084360025F560FEF71FFE03462068016844
:102C1000090721D502952B4800900125690500225E
:102C200020461F4600F01AF9002812D0EFF310805A
:102C300085F3108821680A6880239A430A6080F32C
:102C40001088032020228821029D6250357003B035
:102C5000F0BD20683B46029D0068400726D5194814
:102C600000900127B9050022204600F0F7F800285F
:102C70001CD0EFF3108087F31088092149012268E6
:102C800013688B43136080F31088EFF3108087F391
:102C9000108821688A68BA438A6080F3108803200C
:102CA00020228C216250357003B0F0BD202070606E
:102CB000B060E56670212A4628466250357003B040
:102CC000F0BDC046FFFFFF0180B5806A5E21002293
:102CD0004252FFF75DFA80BDF0B581B0044600684E
:102CE0000168514A0A40A16823690B4365691D4385
:102CF0001543E1690D4305600322120343689343C2
:102D0000E2681A434260A269236A13438268474D0E
:102D100015401D438560C26A0F239A43676A3A4390
:102D2000C262434A904209D0424A904208D1424886
:102D3000406D8007000F41A2125802E0002200E01F
:102D40001022264668360125E803814210D1082A60
:102D500061D8C0467A44127952009744045C195CE9
:102D60002B5C5C5C3000FEF779FF002826D151E037
:102D7000082A50D87A44127952009744044C124CD5
:102D8000354C4C4C3A00FEF769FF002830D141E049
:102D9000294800680006400F411C2C48FDF704FB41
:102DA0000DE0254800680006400F411C2748FDF74C
:102DB000FBFA1EE0FEF79AFF00282BD0676A790025
:102DC000234A515AFDF7F0FA400061684A0810188A
:102DD000FDF7EAFA0246103A1E498A421BD2014028
:102DE0000007400F084313E0FEF780FF002811D0D2
:102DF000676A7900164A515AFDF7D6FA61684A089F
:102E00001018FDF7D1FA01461039124A914202D248
:102E10002168C86000251048306000206067A06706
:102E2000284601B0F0BDC046F369FFCFFFF4FF11A3
:102E30000044004000380140001002400000000043
:102E4000040000000200000008000000006CDC022A
:102E5000CC3C0008F0FF000001000100F0B585B097
:102E60001F4615460E460368D9693140891B4A4200
:102E70004A410021954222D10A9C002C22D0039184
:102E8000611C24D1D9693140891B4A424A4195428B
:102E900031D1D9693140891B4A424A4195422AD1F0
:102EA000D9693140891B4A424A41954223D1D969A7
:102EB0003140891B4A424A419542E3D01BE0084613
:102EC00005B0F0BDFEF7C0FC032005B0F0BD402EFC
:102ED000049001D0802E14D1FEF7B6FCC01BA04296
:102EE0000CD8049800680168C0693040801B4142DA
:102EF00041418D42F0D0039805B0F0BD032005B0EC
:102F0000F0BD8430019001200090C002029006E0E4
:102F1000C8693040801B414241418D42EBD1FEF7F0
:102F200093FCC11B0320A1423FD8049909680A6899
:102F30005207EDD5CA69120739D4CA69029B1A42F1
:102F4000E6D0029A0A62EFF31082012181F3108821
:102F500009235B01049C246825689D43256082F356
:102F60001088EFF3108281F31088049B1B689C6823
:102F70002A4D25409D60049B82F31088DA6E012A59
:102F80000BD1EFF3108281F3108819680B681024BD
:102F9000A3430B60049B82F310882021019CA16055
:102FA0000022DA665A672270E16005B0F0BD08259C
:102FB0000D62EFF31081009880F31088092252010E
:102FC000049B1B681C6894431C6081F31088EFF31A
:102FD000108180F31088049A126893680F4C1C408B
:102FE000049B946081F31088D96E01290CD1EFF312
:102FF0001081012282F310881A6813681024A343F9
:103000001360049B81F310882021019A91600021B4
:10301000D96659671170D56005B0F0BDFEFFFFEFAE
:1030200080B5C348FFF7B6F880BDC04680B50848F4
:10303000FFF7B0F880BDC04680B582B0019004486B
:1030400001A901226423FFF779FB019802B080BD3A
:10305000CC0000208AB0FEF705FCFFF711FDFFF75A
:1030600037FCFFF7D1FCFFF79BFC884800F0EEFD32
:10307000FDF7B6FCFDF726FE854C60610021069148
:10308000A160FDF759F9606082A000F0DFFD8C4877
:10309000FDF70CFE8BA000F0D9FD01252C4636E093
:1030A00000207070B068FDF76BF904900391059EE5
:1030B0003046FDF765F902460498009003980190A8
:1030C00092A00B4600F036F930469849FDF78FF88C
:1030D000FDF73DF907A94872020A0A72020CCA718B
:1030E000000E887100204871202008718220C8706D
:1030F00007208870A52048705A2008700A2264238F
:103100008B48FFF71BFB79027848FEF78CFB05968E
:1031100006E0052000074021FEF780FB002822D0B2
:10312000012779037148FEF779FB0646E8B286422B
:1031300002D0FEF789FB06903546FEF785FB06991F
:10314000401A3328E5D3E0B28642E2D0002E2C4666
:10315000DFD1FDF7B7FD00244D4EB4603470FDF7AC
:10316000EBF87060D5E7FDF76FFD029048484168C5
:1031700080680390FCF7E2FF064604900298FDF792
:10318000DBF83146FDF72BF802905949FDF72FF88F
:103190000399FCF7D3FF06463D48866002985549DF
:1031A000FDF725F80499FCF7C9FF0146384804915A
:1031B0004160F8070390864330464F49FDF792F887
:1031C000002815D10020324E30700498FDF7BFF86A
:1031D000FDF7ECFB0590B068039988434649FDF77D
:1031E0008FF8002828D13770FEF72EFB306123E0DE
:1031F000274E307802281DD0012802D00028E4D0C4
:103200001AE00498FDF7A3F8FDF7D0FB0590FEF750
:103210001BFB3169401A394988420DD30598F0608B
:10322000039988433649FDF75DF8002804D1022050
:10323000307001E0F06805907068FDF788F87169FA
:10324000411ACA175140891A2E4A914200D927E7DC
:10325000717800290FD00490FEF7F6FAB169401A90
:10326000294988420BD30498FDF726FD00203070D1
:103270000498706100E07770FEF7E6FAB06130788C
:10328000022800D10EE7002005900BE7533D00080F
:10329000180000200D0A53697374656D6120707207
:1032A0006F6E746F2E2042616C616E636120766177
:1032B0007A69612065207461726164612E0D00007D
:1032C000F606C245447269766572204457494E201D
:1032D000496E696369616C697A61646F206E61200F
:1032E0005553415254312E0D00000000000800508B
:1032F0000AD7A33D3333733F0000A041E903000028
:103300000AD7233CDB050000B90B00005065736F42
:103310003A20252E3366207C2056656C6F636964E5
:103320006164653A20252E32660D0A0000007A4459
:10333000380000200FB410B503A9044B044A0298CA
:1033400000F0E8F810BC08BC04B018473930000899
:10335000000000202021020C01D010211046020A9A
:1033600001D010460839020901D01046091F820811
:1033700001D01046891E420801D0881E7047081AE5
:10338000704702E008C8121F08C1002AFAD170472E
:103390007047002001E001C1121F002AFBD17047D5
:1033A000F0B51FB486B00998089A030D00210243B6
:1033B00014D05148514A1818504305141198012847
:1033C00010981AD0281A401C00264D4F4D490096DF
:1033D00001910490002812DA444211E0119801246E
:1033E00049A3012801D11098C1430698119A84601D
:1033F0000360C26041600BB0F0BD4042E4E70446A8
:10340000210500203F4A001C51410391029012E027
:10341000E00707D032463B4601990098FDF706F9D0
:103420000191009032463B4610461946FDF7FEF8E2
:1034300006460F466410002CEAD10498039B00282E
:10344000029A0999089806DAFDF7F0F8019B009AAC
:10345000FDF7ECF805E0FDF751F9019B009AFDF747
:103460004DF904460E460022284BFDF7DFF903D83C
:103470000020C043014607E00022254B204631468C
:10348000FDF722F8FDF7B2F9102409E0002C0ADB61
:103490000A220023FCF7A7FF079B30321A55641E4F
:1034A00002460A43F2D11122641C079B121B1C190D
:1034B000119B012B03D0012308430ED10AE00843DE
:1034C00004D0112010900020119077E71098151A61
:1034D0006D1E0BE01098824202DD00236D1C03E09C
:1034E000824201DA00236D1E002BEED0069811995E
:1034F0008260C16030C07EE701FCFFFF104D00001C
:10350000000014400000F03F300000000000F043D5
:103510000000E03FFFB597B00646002518E22528D9
:1035200077D100242746FD49049400E00443761C2B
:1035300032780120203A90400842F7D130782A288A
:103540000ED00222307801463039092916D8049964
:103550000A235943303940181443761C0490F1E78C
:10356000189802C804911890002904DA0120400339
:1035700004434842049002200443761C30782E28ED
:1035800014D1042004437078761C2A2809D1189895
:10359000761C80C8189009E00A214F43303FC719B4
:1035A000761C3078014630390929F5D930786C28F5
:1035B00010D006DC4C281AD068280ED06A2817D103
:1035C00004E0742813D07A2812D110E001204005BD
:1035D00004430CE00121090501E0032109050C4326
:1035E0007178814203D1012000052418761C761CD5
:1035F0003078119066280BD013DC58287DD009DC78
:1036000000287BD04528F6D04628F4D047281AD188
:10361000A5E118E0632835D0642870D0652812D160
:103620009DE170286CD008DC6728F1D069287BD038
:103630006E280DD06F2806D1BAE073282ED07528D9
:1036400071D0782859D01A9A199990476D1C7EE14B
:103650006002400F022809D003280DD004281898D2
:1036600001680DD00D60001D189070E11898EA17E0
:1036700001680D604A60F6E7189801680D80F2E76E
:103680000D70F0E718986A4601781172001D1890C5
:103690000020507202A80090012005E0189802C88E
:1036A000189000200091C04361070DD5002101E072
:1036B0000199491C0191B94212DA8142F8DB009A62
:1036C000515C0029F4D10BE0002101E00199491C73
:1036D00001918142FADB019A0099895C0029F5D1B8
:1036E000019904981A9B471A21463846199A00F006
:1036F00097FA0199401945180BE04FE02CE113E0CF
:103700004EE0009800990078491C00911A9A199986
:1037100090470198401E0190401CF2D12146384646
:103720001A9B199A10E137E00A20002100900191BC
:103730006002410F022907D0189A01CA1892C217D5
:103740009446032908D00AE01898C01DC108C90092
:1037500005C91891944607E000B2C217944604299F
:1037600002D140B2C1178C4600226146944506DA68
:103770000A460021404291418C462D2102E021055C
:1037800004D52B216A461173012103E0E10701D022
:103790002021F7E7029155E00A200AE0102008E016
:1037A000102000900021042004430191082703E029
:1037B00008200021019100906002410F022907D0EA
:1037C000189A01CA189200229446032908D008E0EA
:1037D0001898C01DC108C90005C91891944603E096
:1037E00080B2042900D1C0B200210291210729D55D
:1037F0001199702906D0009A1021019B4A401A4362
:1038000005D00EE040216A461173012108E06146AF
:10381000014306D030216A46117311995173022178
:103820000291009A0821019B4A401A430AD161463D
:10383000014301D1610705D530216A461173012189
:103840007F1E02911199582904D035A10E910DA91E
:103850000D910DE037A1F9E76146019B009AFCF755
:10386000C2FD0E9B8C469B5C0D9A521E0D921370EE
:1038700061460143F0D10D9805A9081A2030019046
:10388000600703D501200004844300E0012701986C
:10389000874201DD381A00E00020019900904118AC
:1038A000029809180498401A0490E00306D42146AF
:1038B0001A9B199A049800F0B3F94519002706E0FD
:1038C00003A81A9AC05D199990476D1C7F1C029835
:1038D0008742F5DBE0030CD521461A9B199A049820
:1038E00000F09EF9451904E01A9A30201999904782
:1038F0006D1C0099481E00900029F5DC08E00D9829
:103900000D990078491C0D911A9A199990476D1CD0
:103910000199481E01900029F1DC63E109280100AA
:103920003031323334353637383961626364656635
:1039300000000000303132333435363738394142F7
:10394000434445460000000000F05AF94519761C32
:103950003078002800D0E2E528461BB0F0BD6007B3
:1039600000D406271898C01DC108C90048680A6815
:103970000831C30FDB071891190001D09CA108E0A2
:10398000210501D59BA104E0E10701D09AA100E047
:103990009AA1430011985B08109165280CD006DCB1
:1039A000452809D046281DD0472841D141E0662846
:1039B00018D067283CD13CE00021112F01DB1120F9
:1039C00000E0781C0191009008A911A8FFF7E8FC1D
:1039D000139905910021119A15927F1C1298019755
:1039E000009150E00120C00703900120019008A938
:1039F000009711A8FFF7D4FC139A1499059200229E
:103A0000119B009212981593059A0192002901D0FA
:103A1000104602E0791C40180190381A01D501982F
:103A200004E04042401E0090781C0190C01B0290B0
:103A300043E0012F00DA01270021112F01DD1120C1
:103A400000E038460191009008A911A8FFF7A8FCF2
:103A500013990591119A00211298159200910197DE
:103A600021070CD40599B94201DB019900E00191CD
:103A7000012904DD159A491E515C302906D0B8424F
:103A800001DA011D05DA0121029115E00199491EB3
:103A9000EDE7002805DC0099411800910199091A09
:103AA00003E0019A411C914200DD01910099401A06
:103AB000401C02900120C0070390200706D4029901
:103AC0000198814202DB0020C04302900020694639
:103AD000C87707AF012103980337C907884224D06C
:103AE000022011902B201290039800280CDA4042FB
:103AF00003902D20129007E00A210398FCF754FC54
:103B000030317F1E039039701199481E11900029A1
:103B1000F2DC03980028EFD1791E129808703078F3
:103B2000202108404530BF1E387006A8C01BC01DAC
:103B3000039010980078002800D0012001994118C6
:103B40000298C0170918039809180498401A401ED3
:103B50000490E00306D421461A9B199A049800F0B9
:103B60005FF8451910980078002803D01A9A19991F
:103B700090476D1CE00324D521461A9B199A04989E
:103B800000F04EF845191CE00098002807DB00996A
:103B90000598884203DD1598405C199901E0199950
:103BA00030201A9A904700986D1C401C0090029893
:103BB000401E0290002804D11A9A2E20199990478D
:103BC0006D1C0199481E01900029DDDC05E0387864
:103BD0001A9A7F1C199990476D1C0399481E0390EF
:103BE0000029F4DC21461A9B199A0498ACE60000DF
:103BF0002D0000002B00000020000000000000004D
:103C0000F8B5044600251E461746880404D405E08E
:103C100039462020B0476D1C641EF9D52846F8BDF2
:103C2000FFB50446002581B01E46C80301D53027E4
:103C300000E02027880404D505E038460399B04702
:103C40006D1C641EF9D5284605B0F0BD10B50446BC
:103C500001E0FFF7F1F92078641C03490028F8D14E
:103C60000A20FFF7E9F910BD000000200000000065
:103C70000000000000000000000000000000000044
:103C80000000000000000000000000000100000033
:103C90000200000003000000040000000600000015
:103CA00007000000080000000900000000000000FC
:103CB0000000000000000000000000000100000003
:103CC00002000000030000000400000001000200E8
:103CD0000400060008000A000C001000200040004C
:103CE0008000000101010103070100000804020433
:103CF000080101014C6569747572617320696E7306
:103D00007461766569732028646966663A20256C5B
:103D100064292E2054656E74616E646F206E6F7618
:103D2000616D656E74652E2E2E0D0A0054617261F0
:103D3000206573746176656C20636F6E636C756962
:103D4000646121204F6666736574203D20256C6494
:103D50000D0A000D0A2D2D2D2042616C616E6361EC
:103D600020646520507265636973616F20636F6DB5
:103D70002041445331323332206520446973706CE2
:103D80006179204457494E202D2D2D0D0000000053
:103D9000B03D000800000020180000008233000839
:103DA000C83D0008180000205005000092330008AC
:103DB000000000000100000004000000001BB7002C
:083DC0000000803F000000003C
:04000005080000C12E
:00000001FF
