:020000040800F2
:1000000020060020D5000008F9280008572700081E
:1000100000000000000000000000000000000000E0
:10002000000000000000000000000000FD280008A3
:100030000000000000000000FB280008FF28000866
:10004000E7000008E7000008E7000008E7000008F4
:10005000E7000008E7000008E7000008E7000008E4
:10006000E7000008E7000008E7000008E7000008D4
:10007000E7000008E7000008E7000008E7000008C4
:10008000E70000080000000000000000E700000892
:1000900000000000E7000008E7000008E700000893
:1000A000E7000008E7000008E7000008A92E0008A4
:1000B000B92E000800000000000000000000000051
:1000C0000348854600F020FC00480047E12E000868
:1000D000200600200448804704480047FEE7FEE76A
:1000E000FEE7FEE7FEE7FEE79D290008C1000008E5
:1000F000F8B500242546002904DA0E460124002123
:100100004042B141002B04DA1E4600235242012531
:10011000B34100F096F98C4617461E46AC4203D018
:10012000002540428D41AC46002C02D000265742AB
:100130009E4161463A46334601B0F0BD30B5434377
:1001400051435C18010C130C0D465D432C1980B211
:1001500092B20546554351430A0C09044D196241B8
:100160005843010C00044019514130BDF8B5024616
:100170004A40D40F42004B0052085B089A4202D218
:100180000246084611464A0023D0C30D4A00DDB29C
:10019000120EAD1A202D35DA49020126490AF6055C
:1001A0008A19002C00D0524220214F1B1146B94021
:1001B0002A411018C20D9A4221D0002C17D0012DCF
:1001C00008DCDA05801AD20F8019D207DBB200F002
:1001D00070F9F8BDDA05801A012340001B06C0182B
:1001E00080185A428018CA0F1043490007E0490896
:1001F000C2071143DA05801A80194008801800F000
:1002000050F9F8BD61000122511A001BF7E70122E5
:10021000D2075140AAE70122D2075040A6E7024682
:1002200070B54A40D30FDB0740002DD04A002AD0DA
:10023000010E140E000212020919400A520A841813
:10024000E50104465443000A120A2E045043A4193F
:100250004219200CC543AA18120C0125AD03521CEB
:10026000521912047F39240400D0521C104301D4C7
:100270004000491EC2B20C06C0092018401C4008AC
:10028000802A02D003E0002070BD40084000002911
:1002900000DA0020184370BD70B502464A40D50F01
:1002A00040004A00ED0740085208002814D0002AF8
:1002B00012D0C40DD30D41020120C0055202490ADB
:1002C000520AE41A091812187D34914201D3641CB1
:1002D00000E04900002C01DA002070BD00239142AB
:1002E00001D3891A0343400849000028F7D10029A7
:1002F0000AD0914202D10121C90705E0914201D201
:10030000012101E00121C943E005C018401900F0B6
:10031000C8F870BD0122D207002800DB101A00299E
:1003200000DB511A814201D801207047002070473C
:100330000122D207002800DB101A002900DB511A25
:10034000814201D301207047002070470122D2076B
:10035000002800DB101A002900DB511A814201D16C
:100360000120704700207047C217C10F504010B5E0
:100370004018CA079623002100F09BF810BD0A46DA
:1003800070B5C917D30F4A4048400025C11814461C
:100390006C41DA0796232046002C03D0B62300F0E8
:1003A00088F870BD08460021F9E7C20F41004002FD
:1003B0000123400ADB05D207090EC0187F2901DAA4
:1003C00000207047962903DC9623591AC84001E0A3
:1003D00096398840002AF4D040427047C20FD207B5
:1003E000400040080BD0C10D0723DB01C9184002B3
:1003F0000905400A1143C208400711437047002015
:100400000146704770B50446002903D00020202221
:10041000012310E0002801D00020C043C046C046A0
:100420000DE02546D5408D4205D30D469540641B11
:100430001D46954040191546521E002DF1DC2146FF
:1004400070BDF0B51FB40646002082B005464024BA
:10045000019100901BE0019922460F46304600F0C2
:100460007BFA049A059B801A994110D310461946CD
:10047000224600F061FA361A8F4101972246012088
:100480000021009F00F058FA38184D410090204696
:10049000641E0028DFDC019B00982946324607B025
:1004A000F0BD002904DA401C490001D14008400099
:1004B000704770B40024050C05D11024000402D14B
:1004C000002921D01124050E01D100020834050FA6
:1004D00001D10001241D850F01D18000A41C00283A
:1004E00001DB4000641C002908D020252E1B0D468E
:1004F000F540A14000D001212943084301061B1B00
:10050000000ADB1D02D5002070BC7047DB051818FF
:1005100080180029F8DA401C4900F5D170BC400869
:100520004000704770B5002801DC002070BD41001C
:1005300040020126400AF605090E8019CA0701D1BA
:100540004000491E4D10002211463F353346CB4036
:100550009B18D418844201D8001B1A464000491C3D
:100560001729F3DD5100814202D20021C94300E086
:100570000021E8058018FFF794FF70BDF0B507462D
:100580000846584087B0C00F049048000E465900F6
:1005900040084908BC1A884105D2384631461E46F3
:1005A00017460B4602465800400810434CD0300D09
:1005B000039040055900400D490D0590401A0290E6
:1005C000402872DA18030121000B09050843019045
:1005D00004980092002805D00199524200208841D9
:1005E00000920190029840210A1A0199009800F0A7
:1005F000A3F905460C466B4607CB00F0BEF9C019BF
:100600007141039A0E0D0023D71756401A467A40BF
:10061000164344D0049A002A2DD0029A012A039A44
:1006200015DC1205C01A914101263605001C7141E6
:10063000D20F059ED2070093019202962A462346C6
:1006400000F0BBF907B0F0BD38463146FAE71605B1
:10065000224A0F46B218C01AB74101210905001CF1
:100660004F4100187F41114618187941E20F10439D
:100670006D19644113E0E2076D0815436408C20771
:100680001443039A01261205C01A91413605001C35
:100690007141CE07400830434908C01851412A46ED
:1006A000234600F07DF9CDE7FFE7049801224000E2
:1006B000C117121A00238B4104983146C417381A07
:1006C000A141EEE730B40124E407634030BC55E7B4
:1006D00030B40124E407614030BC4FE70000E0FF84
:1006E000F0B51FB488B00B990998002448400999C7
:1006F000C00F490049080991C0070B9900904900B3
:1007000049080B9109990898A64608431CD00B99F3
:100710000A98084318D0099801244000420D480067
:10072000410D099824050003000B204309900B9804
:100730000003000B20430B9050181C494018002266
:1007400001901446104605E0002001460DB0F0BDB2
:10075000032801DA034600E003239C46C11A0AAECF
:100760000AE05F0008ADED5B4F00F75B7D430027BB
:10077000AA187C41491C5B1E6145F2DD410004ABB7
:100780005A522104120C0A43240C401C0828DFDBB7
:10079000019802900099704601910090059B049A7F
:1007A0000799069800F009F9D0E700000DFCFFFF5B
:1007B000F0B50C465C4085B0E40FE40703944C00B0
:1007C00000266408590094464908024602962243CE
:1007D00021D062460A431ED06200570D4A000E0324
:1007E0002303550D012402462C492405781B1B0BBD
:1007F000360B401823432643614600901C46501A8E
:10080000B44103D30098401C009002E09218009875
:100810005B41002803DA0020014605B0F0BD00204E
:10082000012109050746864611E064461D46141B52
:10083000B54106D36546521BB341744607430C438A
:10084000A646CD0740084908284392185B41054653
:100850000D43EAD11046184313D060461946504064
:100860007140084306D06046101AB34106D20122F7
:10087000002306E000220123DB0702E00122D2432D
:100880005310009874460105381C6141029C039D79
:100890000019694100F084F8BFE70000FD03000083
:1008A0004A0009030123090B1B0519430A4B10B524
:1008B000520D9A4202DA0020014610BD064B343335
:1008C0009A4203DC9A1A00F047F810BD034BD21885
:1008D00000F032F810BD0000FF030000CDFBFFFF69
:1008E00010B5002904DB0124E40740428C41214675
:1008F000002B04DB1C460123DB075242A341994233
:1009000000D1904210BD00001CB509480090094874
:10091000019005460126009C05E0E36807CC3343BF
:100920000C3C98471034AC42F7D3FFF7CDFB0000E6
:10093000583D0008783D000810B5202A04DB014628
:10094000203A9140002010BD914020239C1A03467C
:10095000E3401943904010BD10B5202A04DB08463F
:10096000203AD040002110BD0B46D340D040202477
:10097000A21A91400843194610BD10B5202A06DB83
:10098000CB170846203A1041C1170B4306E00B462F
:100990001341D0402024A21A91400843194610BDAB
:1009A00010B5002B08DA0024401C614192185B410D
:1009B0001A4301D14008400010BDF0B51FB482B009
:1009C00005460C0003D0084602F0ACFC02E002F041
:1009D000A9FC20300246009021462846FFF7ACFFD4
:1009E000049B059A04460F4618431143084314D04C
:1009F000184610431BD0009840210A1A1846059942
:100A0000FFF7AAFF05460E46009A05990498FFF7DE
:100A100093FF084305D0012004E02046394607B083
:100A2000F0BD0020C11705430E432C433743009906
:100A30000E986305401A7905E40A00220C43FD0A6A
:100A40000A3002D500200146E9E701051019694185
:100A50000C9C0D9D00196941FFF7A2FFDFE7000024
:100A6000F0B581B00446E14E7768B84216DAB06856
:100A70003168FFF7CCFB0546F068C01BFFF774FC3C
:100A800001462846FFF708FC0546E01BFFF76CFC13
:100A900001462846FFF7C3FB01B0F0BDF768BC4232
:100AA0001EDD7769BC421FDDF569AC4220DDB0690F
:100AB00000903169FFF7ABFB0646E81BFFF754FCDB
:100AC00001463046FFF7E8FB0646601BFFF74CFC8B
:100AD0003146FFF7A4FB0099FFF748FB01B0F0BDDA
:100AE00031460831002007E031461031012003E093
:100AF0003146183102202F46C00035186E68B742C3
:100B000002D1286801B0F0BDB81B0F46FFF72CFCDE
:100B1000009038682D682946FFF779FB0746A01B2F
:100B2000FFF722FC0099FFF7B7FB3946FFF777FB89
:100B30002946FFF71BFB01B0F0BDC04670B5084C5D
:100B4000202500222046294600F0B9FD0126304626
:100B500000F0D0FC20462946324600F0B0FD70BDC2
:100B600000040050F0B585B00520040700F0B0FD8A
:100B70000546C8354021204600F094FD012807D1E4
:100B800000F0A6FDA842F5D90025284605B0F0BD25
:100B900072B600252F46009505E0019949000D1811
:100BA0007F1C182F4DD0019520210122204600F0F6
:100BB00086FD009803900398072817D80398401CD7
:100BC00003900398072811D80398401C03900398BA
:100BD00007280BD80398401C03900398072805D8D2
:100BE0000398401C039003980828E7D3402120462F
:100BF00000F058FD0546202100262046324600F030
:100C00005EFD0496691E4842484104990729C4D8EC
:100C10000499491C049104990729BED80499491CD8
:100C2000049104990729B8D80499491C049104999E
:100C30000729B2D80499491C049104990829E7D3DB
:100C4000ABE720210122204600F039FD02960298F0
:100C5000072817D80298401C02900298072811D83C
:100C60000298401C0290029807280BD80298401C5A
:100C700002900298072805D80298401C029002981A
:100C80000828E7D320210022204600F018FD019813
:100C9000400202D5FF200006054362B6284605B093
:100CA000F0BDB0B5FFF75EFF0446FFF75BFF84427F
:100CB000254609DA84420ADDFFF754FF84420BDA45
:100CC000A5420CDD2846B0BD05468442F4DC04464E
:100CD000FFF748FF8442F3DB0446A542F2DC2546D9
:100CE0002846B0BDF0B587B036A002F09DFF0020C9
:100CF0000190044602943C48441C14260346019D7E
:100D0000284603E0761E0C46134637D0039404931E
:100D100005900695FFF726FF0746FFF723FF0546D8
:100D2000FFF720FF04460A2000F0E4FBAF423A46FA
:100D300013DAAF4214DDA742049B15DABA42069DCE
:100D400000DC3A46D117059880184D41039CA24219
:100D500011460EDD9A42D5DB0EE02A46AF42EADCB0
:100D60002F46A742049BE9DB2746BA42069DE8DDF1
:100D7000E8E721469A42C5DB1A46C3E7891AFF22F3
:100D8000F4329142029C0CDD24A002F0BBFA641CF8
:100D90000A2CAFD12F4802F047FF1548006807B072
:100DA000F0BD142200232946FFF7A2F901460F489F
:100DB00041600F4801600FA002F0A4FA0C480068DF
:100DC00007B0F0BD546172616E646F2E2E2E20410B
:100DD000677561726465206573746162696C6964CA
:100DE0006164652E0D000000FFFFFF7F14000020EE
:100DF0007000002054617261206573746176656CC7
:100E000020636F6E636C7569646121204F66667341
:100E10006574203D2025640D0A0000004C6569744E
:100E20007572617320696E737461766569732028C9
:100E3000646966663A202564292E2054656E7461C3
:100E40006E646F206E6F76616D656E74652E2E2EEA
:100E50000D0A0000FC3C0008F0B58DB001AB07C3E3
:100E60000448406804900020034E072201460546CE
:100E7000044603E0380000209C01002006950C92F7
:100E800007910890059604998D18E81F0A95C117D7
:100E9000C90E41181F22D2430B921140401A800004
:100EA00065490858C1170C9AD21F00263346099687
:100EB000FFF744F90F460699401806906741A81FAE
:100EC000C117C90E41180B9D2940401A80005A498C
:100ED0000858C1170C9A921F3346FFF72FF90C469A
:100EE0000699401806907C410A9E701FC117C90ED2
:100EF00041182940401A80004F490858C1170C9AE0
:100F0000521F099D2B46FFF719F90F460699401805
:100F100006906741301FC117C90E41180B9A114046
:100F2000401A800044490858C1170C9A121F2B46DA
:100F3000FFF704F90C460699401806907C41F01E14
:100F4000C117C90E41180B9D2940401A80003A492B
:100F50000858C1170C9AD21E099E3346FFF7EEF8C7
:100F60000F4606994018069067410A98801EC117DF
:100F7000C90E41182940401A80002F490858C1174E
:100F80000C9A921E34463346FFF7D8F80D46069960
:100F9000401806907D410A9E701EC117C90E411867
:100FA0000B9A1140401A800023490858C1170C9A27
:100FB000521E2346FFF7C2F80F46069940180690C6
:100FC0006F41F017C00E30180B9A1040301A059E72
:100FD000800019490858C1170C9A2346FFF7AEF84C
:100FE0000C46069945187C413068C117089A1018BC
:100FF000079A51417268D31780184B41B168CA17DC
:1010000040185A41F168CB17401853413169CA174B
:1010100040185A417169CB1740185341B169CA173A
:1010200040185A41F369D917C01851410C9A083237
:101030002036272A02D021E79C0100200C94069537
:1010400008900791FFF79BF93D210E063146FFF707
:10105000E6F8044601990860E34F3868FFF784F921
:101060002146FFF7D4F80146FFF7D9F8054678681E
:10107000FFF77AF92146FFF7CAF80146FFF7CFF8E4
:101080002946FFF773F80546B868FFF76DF9214662
:10109000FFF7BDF80146FFF7C2F82946FFF766F8EB
:1010A0000546F868FFF760F92146FFF7B0F80146FA
:1010B000FFF7B5F82946FFF759F805463869FFF7F5
:1010C00053F92146FFF7A3F80146FFF7A8F8294690
:1010D000FFF74CF805467869FFF746F92146FFF718
:1010E00096F80146FFF79BF82946FFF73FF80546BB
:1010F000B869FFF739F92146FFF789F80146FFF78C
:101100008EF82946FFF732F80546F869FFF72CF903
:101110002146FFF77CF80146FFF781F82946FFF7E3
:1011200025F80546386AFFF71FF92146FFF76FF8E3
:101130000146FFF774F82946FFF718F80546786A64
:10114000FFF712F92146FFF762F80146FFF767F84B
:101150002946FFF70BF80546B86AFFF705F921465F
:10116000FFF755F80146FFF75AF82946FEF7FEFF4C
:101170000546F86AFFF7F8F82146FFF748F80146F8
:10118000FFF74DF82946FEF7F1FF0546386BFFF7EC
:10119000EBF82146FFF73BF80146FFF740F82946F8
:1011A000FEF7E4FF0546786BFFF7DEF82146FFF710
:1011B0002EF80146FFF733F82946FEF7D7FF05461C
:1011C000B86BFFF7D1F82146FFF721F80146FFF78A
:1011D00026F82946FEF7CAFF0546F86BFFF7C4F864
:1011E0002146FFF714F80146FFF719F82946FEF7E4
:1011F000BDFF0546386CFFF7B7F82146FFF707F843
:101200000146FFF70CF82946FEF7B0FF0546786C5B
:10121000FFF7AAF82146FEF7FAFF0146FEF7FFFFA7
:101220002946FEF7A3FF0546B86CFFF79DF8214657
:10123000FEF7EDFF0146FEF7F2FF2946FEF796FFA7
:101240000546F86CFFF790F82146FEF7E0FF0146EF
:10125000FEF7E5FF2946FEF789FF0546386DFFF7E3
:1012600083F82146FEF7D3FF0146FEF7D8FF294653
:10127000FEF77CFF0546786DFFF776F82146FEF70E
:10128000C6FF0146FEF7CBFF2946FEF76FFF054676
:10129000B86DFFF769F82146FEF7B9FF0146FEF782
:1012A000BEFF2946FEF762FF0546F86DFFF75CF8C2
:1012B0002146FEF7ACFF0146FEF7B1FF2946FEF7D7
:1012C00055FF0546386EFFF74FF82146FEF79FFFA2
:1012D0000146FEF7A4FF2946FEF748FF0546786E53
:1012E000FFF742F82146FEF792FF0146FEF797FF0F
:1012F0002946FEF73BFF0546B86EFFF735F8214655
:10130000FEF785FF0146FEF78AFF2946FEF72EFF0E
:101310000546F86EFFF728F82146FEF778FF0146EC
:10132000FEF77DFF2946FEF721FF0546386FFFF7E0
:101330001BF82146FEF76BFF0146FEF770FF2946BA
:10134000FEF714FF0546786FFFF70EF82146FEF70B
:101350005EFF0146FEF763FF2946FEF707FF0546DD
:10136000B86FFFF701F82146FEF751FF0146FEF77F
:1013700056FF2946FEF7FAFE0546F86FFEF7F4FF22
:101380002146FEF744FF0146FEF749FF2946FEF7D6
:10139000EDFE3146FEF743FF02F056FC029908606D
:1013A000104EB5682846099F3946FEF7CFFF002842
:1013B00014D1B06AF16A089A079BFEF7BFFE069C3B
:1013C000E20E0C9B5B019A186301181A8A411146C0
:1013D000FEF7D5FF2946FEF75FFF07460398076033
:1013E0000DB0F0BD380000209C01002072B6054C05
:1013F00001204102204600F05AF9C82000F07AF896
:10140000F6E7C0460008005070B500282CD0014611
:1014100024314A78022A29D1046822680E239A438B
:101420002260426C1568314B1D4015602568012211
:1014300095432560046C1C2525401446AC402C4D7A
:101440002E6826432E60846CC56C6560046D002C8C
:1014500005D025681D402560436D806D58604A7039
:10146000002000220A7070BD012070BD0422C263FA
:10147000012000220A7070BD70B52421012444545B
:10148000014624314A78022A2BD103681A680E24B7
:10149000A2431A601C68012294431C60446C2568B6
:1014A000124B1D402560046C1C2525401446AC40A1
:1014B0000F4D2E6826432E60846CC56C6560046DEC
:1014C000002C05D025681D402560436D846D5C604F
:1014D00000240C704A70816B002900D08847204698
:1014E00070BD0421C163204670BDC046FFFEFFFFF2
:1014F00004000240B0B5044600F0EAF80546601C5E
:1015000002D090480078241800F0E2F8401BA04276
:10151000FAD3B0BDF0B58AB0069009910B68002BE4
:1015200000D1B4E05B480699814201D0062000E07A
:1015300005200B221207069989180A22D141009131
:10154000042900D3009006982030019000252E46F3
:10155000079529460FE01A4362600899491C0998CB
:1015600003681846C8400835B61C079A121D079232
:10157000002800D18BE001242046089188400340D8
:101580000393EAD0049509994A681021114312295E
:1015900015D11C21079A114005960F2632468A4024
:1015A000089BDB089F00019BDD599543099A12694E
:1015B0003240059E8A402A43DA5109994A6803233A
:1015C00011461940B1400293B3403746069E356834
:1015D0009D430D4335603E46D9430591122A049D33
:1015E00015D894402E490C420FD0069CA168059B4B
:1015F0001940099BDB68B3400B43A3601109089BAA
:101600009940636883430B436360032AA5D0069B1C
:10161000D8680599084009998968B1400143D960A3
:10162000D0009AD5182028400F218140089A029BAB
:101630009A43194CA218136E8B43009981401943A9
:1016400011661648026809984068C10302D5039BD9
:101650001A4301E0039B9A4310490A604A688103D8
:1016600001D51A4300E09A430C494A602268C1023E
:1016700005D51A4322606268800206D56BE79A435B
:1016800022606268800200D565E79A4364E70AB089
:10169000F0BDC046001400500018024080180240FF
:1016A0000600060000690840411E884170474269F3
:1016B0000B4693430A401104C91881617047002A00
:1016C00002D01822815070472822815070470000B4
:1016D000054800687047C0461A48007802490A6801
:1016E000101808607047C0461C02002080B5032017
:1016F00000F008F8002801D0012080BD00F024F897
:10170000002080BD70B50F4E31780124002916D01D
:1017100005467D20C000FEF775FE0146F0480068D2
:10172000FEF770FE00F0BAFB032D08D8002806D1A2
:101730000024E0432946224600F028F87560204640
:1017400070BDC0460800002082B0094841680122EF
:1017500011434160416811400191019911070268EC
:101760000A430260006808400090009802B0704789
:101770003C100240002805D41F210840012181406F
:10178000014801607047C04600E100E0002805D430
:101790000322034693430A4A9A1803E00C220240AC
:1017A000064BD2188007C00E8901C9B28140FF23C1
:1017B00083401068984308431060704714ED00E0C0
:1017C00000E400E0F0B585B00446007840064C4ED9
:1017D00001D4002035E0012001073746203F3A6858
:1017E00003910A40029207D13968039A1143396084
:1017F0003968114004910499032101910A0231686A
:10180000114010D0E26991420DD031680004326875
:10181000024332603268824332600846394A1040DF
:101820003060C8075AD1306836490840E169014341
:10183000316000200299002903D13968039A91434D
:1018400039602168CA070BD18A0713D48A061CD4D1
:101850000A0725D44A072DD4090636D405B0F0BDB1
:101860003246083A13680325AB43A5681D4315604B
:101870008A07EBD5032212033346083B1D689543C4
:10188000E2682A431A608A06E2D5032292073346A9
:10189000083B1D689543A2692A431A600A07D9D5F7
:1018A00001221203331F1D68954362692A431A609F
:1018B0004A07D1D5032292033346083B1D6895435E
:1018C00022692A431A600906C8D55C3E3168E022C5
:1018D000914362680A43326005B0F0BDFFF7F8FE3D
:1018E0000546306880079ED4FFF7F2FE401B7B4917
:1018F0008842F6D90198029900299ED0A1E7C046F6
:101900005C100240FFFCFFFFF0B583B00D460146BE
:10191000012000296BD0029101906F4800680727D1
:101920003840854215D96C490868B8432843086097
:101930006A4CFFF7CDFE0646674800683840A8426B
:1019400007D0FFF7C5FE801BA042F5D9032003B0E6
:10195000F0BD029B186881079F4C10D5410707D541
:101960007B21090222688A430B2109025118216058
:101970000F21090222688A43D96811432160C007F8
:101980001AD1554800683840854232D25249086819
:10199000B84328430860514CFFF79AFE06464E486C
:1019A00000683840A84224D0FFF792FE801BA04276
:1019B000F5D9032003B0F0BD2246083A10681C2177
:1019C00088439968014311605968032943D8880006
:1019D00001A31B5801989F46E91900084F1A0008F7
:1019E0003F1A0008471A00081268520537D403B09E
:1019F000F0BD029A10784007774C05D5380321686E
:101A00008143106908432060204608380168226835
:101A10009206520F06D0226838200240082A07D1C9
:101A20006E4842E000688004420F6D48D0403CE0C0
:101A300022680240202A2AD10120C00335E0126822
:101A40001202D4D50BE0A26D9207D0D507E0126840
:101A50009203CCD503E0606D80070198C7D520685C
:101A6000B84308432060FFF733FE0646206838215C
:101A7000014002984068C000814282D0FFF728FEF2
:101A8000801B16498842F1D9032003B0F0BD2268BB
:101A90000240182A02D17D20000206E0226802409E
:101AA000102A01D0002000E04D48C906490F491C0A
:101AB000FEF7A8FC216889093C220A402B49895875
:101AC0001F220A40D040F2490860F2480068FFF740
:101AD00019FE03B0F0BDC04600200240881300008C
:101AE0001000002010B53C4C2046083801682268E0
:101AF0009206520F06D0226838200240082A07D1E9
:101B000036481AE000688004420FE048D04014E0F4
:101B100022680240202A02D10120C0030DE0226881
:101B20000240182A02D17D20000206E0226802400D
:101B3000102A01D0002000E0D448C906490F491CF2
:101B4000FEF760FC216889093C220A400749895850
:101B50001F221140C840CE4908602168890A1C2311
:101B60000B400349C9581140C84010BD743C0008DF
:101B7000B43C000880B518480246083A116803686A
:101B80009B065B0F06D0036838221340082B07D151
:101B900012481AE010688004420FBC48D04014E09C
:101BA00003681340202B02D10120C0030DE003681D
:101BB0001340182B02D17D20000206E0006810407F
:101BC000102801D0002000E0B048C906490F491C88
:101BD000FEF718FC80BDC0460810024000127A00D3
:101BE000006CDC02F0B581B004460120002C00D16D
:101BF00048E100902078C007A34E08D0B068382292
:101C000002406168082A4BD1002900D190E0207879
:101C1000800721D42078000709D5B0683822024017
:101C2000A169182A00D086E0002900D180E0207840
:101C300040070AD5B06838220240A168202A00D0A7
:101C40008DE00029009800D11CE120780025C00615
:101C500037D4284601B0F0BDE268B0688006400F76
:101C600047D0306801218F02002A00D184E007228A
:101C7000D202904322690243326008023168014374
:101C80003160FFF725FD05463068384200D09BE003
:101C9000FFF71EFD401B0228F6D9032001B0F0BD5E
:101CA000306801235F041A04914207D005252D04F2
:101CB000A94272D199040843306030681043306003
:101CC00073E030680121CF05E2698905002A00D15F
:101CD00083E008433060FFF7FBFC0446306838427D
:101CE000B7D1FFF7F5FC001B0228F7D9032001B09C
:101CF000F0BD002A1CD07F2000027168814360691A
:101D00000002084370600720C002316881432069E7
:101D10000843306030688004400F5C49C1405C4833
:101D200001605C480068FFF7EDFC002800D171E716
:101D3000009801B0F0BD306E00295ED0012108434B
:101D40003066FFF7C5FC0546306E800700D56EE7AC
:101D5000FFF7BEFC411B03200229F5D992E0F06D8C
:101D6000012905D0052959D104210843F065F06DFA
:101D700001210143F1655AE0090288433060FFF711
:101D8000A7FC05463068384200D143E7FFF7A0FCC6
:101D9000411B03200229F5D974E090433060980478
:101DA000326882433260002950D0FFF791FC05462B
:101DB0003068384200D02AE7FFF78AFC401B6428CD
:101DC000F6D9032001B0F0BD7F2000027168814385
:101DD00060690002084370601CE788433060FFF7C9
:101DE00077FC04463068384200D132E7FFF770FCD8
:101DF000011B03200329F5D344E001218843306609
:101E0000FFF766FC0546306E800700D40FE7FFF74A
:101E10005FFC411B03200229F5D933E001229043E6
:101E2000F065F06D04229043F06500291CD01A4F34
:101E3000FFF74EFC0546F06D800700D505E7FFF77C
:101E400047FC411B0320B942F5D91BE0FFF740FCDA
:101E500005463068384200D1D9E6FFF739FC411B0E
:101E600003206429F5D90DE00B4FFFF731FC05463F
:101E7000F06D800700D4E8E6FFF72AFC411B032041
:101E8000B942F5D901B0F0BD00100240006CDC028F
:101E9000100000200C00002088130000401E010EDE
:101EA00001D0012070470749074A5060074803687E
:101EB0000B40032189075918016000209060072119
:101EC00011607047FFFFFF0010E000E020ED00E030
:101ED000B0B58421415C012901D10220B0BD014689
:101EE000843124224A600268136814680125AC43D7
:101EF00014606C07A34313600022426610460A7008
:101F000020224A60B0BD704770470000F0B583B032
:101F1000054668352A7F012A02D1022003B0F0BDB0
:101F2000064688362422326007683A6802923A6888
:101F30000124A2433A6007225206BB6893430B4335
:101F4000BB60406E0028204615D0B8680190B86884
:101F5000400F2E49095C2E4A105CC000FEF752FA71
:101F6000044601980001400F2849095C284A105C8A
:101F7000C000FEF747FA28806C8002983860002085
:101F800028772021316003B0F0BDC046F0B583B0A2
:101F9000054668352A7F012A02D1022003B0F0BD30
:101FA000064688362422326007683A6802923A6808
:101FB0000124A2433A6007225207BB6893430B43B4
:101FC000BB60406E0028204615D0B8680190B86804
:101FD000400F0E49095C0E4A105CC000FEF712FA71
:101FE000044601980001400F0849095C084A105C4A
:101FF000C000FEF707FA28806C8002983860002045
:1020000028772021316003B0F0BDC046F43C0008C1
:10201000EC3C00087047704770470000F0B589B08D
:102020000368DF69202501210691CE0232462F3256
:102030003A40196808900446803405939B68202A2A
:102040000495079710D108462840012212071A402C
:1020500080181F4616D00898416F002900D158E11A
:102060000898884709B0F0BD30460F3007421F4638
:1020700008D0CF480840069A1207551C3D40281842
:1020800000D091E00394102608463040424242417D
:10209000079D284630404442444114430898C06E8E
:1020A000401E421E9041204337D001240126B20534
:1020B0003A4050425041EA022246059B00D5024672
:1020C000002A00D1A6E0280606D580200840F205A7
:1020D0001740C01900D0BDE140230A461A405042C3
:1020E00050416A06224600D50246002A00D14AE144
:1020F000B2070A40504250412A02224600D5024609
:10210000002A00D1B1E1002900DAB3E1E80100D5ED
:10211000B4E1002C00D0FCE0B4E1089C5C340598EC
:1021200006628068400600D57BE06188228860886E
:10213000002800D1EDE08A4200D1EAE0EFF3108000
:102140000790012383F3108809204501089837463A
:1021500006683468AC433460079C84F31088EFF35E
:102160001084079483F310880568AE68C84C344027
:10217000AC60079C84F31088049C039DEC600024F1
:102180004467C466EFF3108483F3108803681D6806
:10219000BD431D6084F3108802230367511A89B27E
:1021A000FFF7B1FE09B0F0BD009203940798069BBB
:1021B00018404242424118020191084044424441C1
:1021C0001443059B05D101201862039C2269024338
:1021D000226101203C460290044060426041079920
:1021E0008A07069A00D50246002A06D10220186204
:1021F0000398016904220A43026160426041079921
:102200004A07069A5ED4002A039C5FD0079800070D
:1022100065D46EE0300518620898FFF7FCFE09B03F
:10222000F0BD2288039800680068436899B20029CD
:1022300000D19CE0914200D399E063800068800661
:1022400035D4EFF31082012181F31088924B2033B3
:102250000898056837462E681E402E6082F3108865
:10226000EFF3108281F3108803689D688D439D60B1
:1022700082F31088EFF3108281F3108803689D6861
:102280004026B5439D6082F31088039B049ADA6070
:102290000022C266EFF3108281F3108800680168A3
:1022A000B943016082F310881868FFF7ADF8022186
:1022B0000898016721886288891A89B2FFF723FE8E
:1022C00009B0F0BD0246002A039C9FD10420186289
:1022D00020690222024322610798000709D501986C
:1022E000049A1040054304D0082018622269024372
:1022F00022610298820601990A4050425041079A91
:10230000324208D106980028049A09D02069002892
:102310000DD109B0F0BD069006980028049AF5D1B9
:102320001E6220691043206120690028F1D00798BF
:1023300010400DD01140009807400F4308D0089876
:10234000416F002904D0089C204688472368039CDD
:10235000206928220240986840210840801829D12D
:102360000898FFF759FE0020206109B0F0BD8A42AD
:10237000CFD100688006CCD5022208980267FFF70B
:10238000C2FD09B0F0BDEFF3108186F31088089804
:10239000026814689C43146081F3108800218167EF
:1023A0000399049A8A6000F0D5F909B0F0BDC046DF
:1023B00020010004EFF31080029E86F310880922AA
:1023C0005201089B1C6825689543256080F310889E
:1023D000EFF3108086F310881A6894682C4D25401E
:1023E000956080F31088D86E01280CD1EFF310822D
:1023F000029880F310880898006803681024A343AB
:10240000036082F31088039C0498E0600020089A1F
:10241000D066506710688068400621D5EFF31082BF
:10242000029880F310880898006883688B43836063
:1024300082F310882168002912D016488863084664
:10244000FFF71AF8002800D163E72068816B8847FE
:1024500009B0F0BD0898816F002900D000E658E768
:102460000898FFF7D9FD09B0F0BD0898FFF7D2FD35
:1024700009B0F0BD0026E80100D44AE63446002C3D
:1024800000D046E70898FFF73FFD09B0F0BDC04611
:10249000FEFFFFEF512B0008DFFEFFFFB0B5002865
:1024A0001ED00446054684356868002804D1002003
:1024B0002870204600F02AF824206860206801680F
:1024C0000125A9430160A06A002802D0204600F03F
:1024D0006DFA204600F044FB002803D02846B0BD2A
:1024E0000120B0BD0920C00221684A6882434A60C9
:1024F00088682A22904388600868012202430A60A3
:10250000204600F0BDFA05462846B0BDB0B58EB0F5
:1025100000240D940C940B940A9409940894079445
:102520000694059404940394029401940068F1497C
:1025300088421FD0D549884242D10125019501A882
:10254000FFF740F9002801D0FEF750FFA803B44977
:10255000CA680243CA60CA680240009200980868CC
:102560002843086008682840009000981B25042034
:10257000032112E001204104A94A93680B439360B0
:1025800093680B4000930099116801431160116832
:102590000140009100991C250C210D900C940B9486
:1025A00002200A9009910520000709A9FEF7B2FF51
:1025B000284621462246FFF7E9F82846FFF7DAF8D1
:1025C0000EB0B0BDF0B585B0074688203858202839
:1025D00010D1012000290BD0002A09D001200403CA
:1025E000BD68A54209D1CD0707D03D69002D04D1B2
:1025F00005B0F0BD022005B0F0BD019302913D464B
:10260000543539468831002003908860212000919C
:1026100008601646FFF75CF804906E802E80B8685C
:10262000A04202D1386900285ED0029C019E039A24
:102630003968688800285ED0701C454B2ED0002E6B
:1026400049D00392C869000608D4FFF741F80499FD
:10265000401AB04267D839680868F3E7002C03D005
:1026600020788862641C07E0039A1088384B184071
:102670008862921C039200246888401E68806888E3
:102680000028DFD137E0108818408862921C0024AF
:102690006888401E6880688800282CD0C8690006B9
:1026A00008D4C869000605D4C869000602D4C86900
:1026B0000006F3D5002CE6D020788862641CE7E79A
:1026C000108818408862921C00246888401E688028
:1026D000688800280FD0C869000622D5002CEFD0EA
:1026E00020788862641CF0E70024029A019E396811
:1026F00068880028A0D1CA690020520614D4002E90
:102700000FD0721C15D1009BCA6952060DD4CA693C
:1027100052060AD4CA69520607D4CA695206F3D5CA
:1027200003E0FEF7D5FF0320009B2021196005B0D0
:10273000F0BD0446FEF7CCFF0499401AB042F2D82F
:1027400038680168C0694006F4D52046ECE7C04609
:10275000FF0100007047FEE7F0B589B0002408943F
:1027600007940694059404942D48016804221143AB
:102770000160016811400391039901680127394301
:1027800001600168394003910399016802221143F5
:102790000160006810400390039805200007019035
:1027A000202529462246FEF78AFF790202917A48BF
:1027B0002246FEF784FF1B48294600952246FEF775
:1027C0007EFF069705947803049004AE7248314664
:1027D000FEF7A0FE0794069405970495019D2846F0
:1027E0003146FEF797FE0694059440200490284653
:1027F0003146FEF78FFE07940694059702980490E1
:1028000065483146FEF786FE0794069405970098C2
:10281000049004483146FEF77DFE09B0F0BDC04685
:10282000341002400004005010B5174800210C225B
:10283000164B016241628162E124640218C00160AA
:1028400041608160C260016141610838FFF726FE86
:10285000002801D0FEF7CAFD0B480021FFF796FBC8
:10286000002801D0FEF7C2FD07480021FFF74EFB0C
:10287000002801D0FEF7BAFD0348FFF729FB002826
:1028800001D0FEF7B3FD10BD7400002000380140F8
:1028900010B5174800210C22164B0162416281627B
:1028A000E124640218C0016041608160C26001617E
:1028B00041610838FFF7F2FD002801D0FEF796FDD0
:1028C0000B480021FFF762FB002801D0FEF78EFDC8
:1028D00007480021FFF71AFB002801D0FEF786FD0C
:1028E0000348FFF7F5FA002801D0FEF77FFD10BD81
:1028F0000801002000440040FEE77047704780B5A3
:10290000FEF7EAFE80BD000070B58EB000240D9485
:102910000C940B940A9409940894079406940594D3
:1029200004940394029401941A4801680726B14361
:10293000016040200B90012528030A90280209908D
:102940000220069006A8FFF74DF900280AD072B6BB
:102950006C02114D28462146FEF7A9FEC820FEF75D
:10296000C9FDF7E70294019603940494059401A825
:102970002146FEF7C9FF00280AD072B66C02064D48
:1029800028462146FEF793FEC820FEF7B3FDF7E781
:102990000EB070BD00200240000800500120C006AB
:1029A000014908607047C04608ED00E0B0B5816A93
:1029B0000A070CD4CA0714D18A071CD44A0724D4A6
:1029C000CA062CD48A0634D44A063CD44CE00122F0
:1029D000D20303685C689443826B22435A60CA073F
:1029E000EAD00122520403685C689443C26A22431D
:1029F0005A608A07E2D50122120403685C68944396
:102A0000026B22435A604A07DAD501229204036816
:102A10005C689443426B22435A60CA06D2D50122B5
:102A2000120303689C689443C26B22439A608A062F
:102A3000CAD50122520303689C689443026C224366
:102A40009A604A0610D501221305026854689C4317
:102A5000456C2C4354609D4206D103235B055468AA
:102A60009C43836C23435360090607D50121C904A5
:102A7000026853688B43C06C18435060B0BD0000BF
:102A8000F0B583B00446064684360025F560FEF7AF
:102A90001FFE034620680168090721D502952B48CF
:102AA000009001256905002220461F4600F01AF912
:102AB000002812D0EFF3108085F3108821680A688F
:102AC00080239A430A6080F3108803202022882103
:102AD000029D6250357003B0F0BD20683B46029DF8
:102AE0000068400726D5194800900127B905002243
:102AF000204600F0F7F800281CD0EFF3108087F391
:102B0000108809214901226813688B43136080F300
:102B10001088EFF3108087F3108821688A68BA4321
:102B20008A6080F31088032020228C216250357047
:102B300003B0F0BD20207060B060E56670212A46C9
:102B400028466250357003B0F0BDC046FFFFFF015C
:102B500080B5806A5E2100224252FFF75DFA80BD97
:102B6000F0B581B0044600680168514A0A40A16886
:102B700023690B4365691D431543E1690D430560F6
:102B80000322120343689343E2681A434260A26936
:102B9000236A13438268474D15401D438560C26A0E
:102BA0000F239A43676A3A43C262434A904209D06C
:102BB000424A904208D14248406D8007000F41A22E
:102BC000125802E0002200E0102226466836012555
:102BD000E803814210D1082A61D8C0467A441279AC
:102BE00052009744045C195C2B5C5C5C3000FEF77F
:102BF00079FF002826D151E0082A50D87A4412796A
:102C000052009744044C124C354C4C4C3A00FEF7A1
:102C100069FF002830D141E0294800680006400FD4
:102C2000411C2C48FDF7EEFB0DE02548006800062E
:102C3000400F411C2748FDF7E5FB1EE0FEF79AFF19
:102C400000282BD0676A7900234A515AFDF7DAFB36
:102C5000400061684A081018FDF7D4FB0246103A9C
:102C60001E498A421BD201400007400F084313E06F
:102C7000FEF780FF002811D0676A7900164A515A82
:102C8000FDF7C0FB61684A081018FDF7BBFB014661
:102C90001039124A914202D22168C86000251048BA
:102CA000306000206067A067284601B0F0BDC046D4
:102CB000F369FFCFFFF4FF110044004000380140EA
:102CC00000100240000000000400000002000000AC
:102CD00008000000006CDC02D43C0008F0FF00009B
:102CE00001000100F0B585B01F4615460E46036889
:102CF000D9693140891B4A424A410021954222D17B
:102D00000A9C002C22D00391611C24D1D969314046
:102D1000891B4A424A41954231D1D9693140891BC8
:102D20004A424A4195422AD1D9693140891B4A42D7
:102D30004A41954223D1D9693140891B4A424A41CF
:102D40009542E3D01BE0084605B0F0BDFEF7C0FC9D
:102D5000032005B0F0BD402E049001D0802E14D188
:102D6000FEF7B6FCC01BA0420CD8049800680168AE
:102D7000C0693040801B414241418D42F0D00398F0
:102D800005B0F0BD032005B0F0BD843001900120F6
:102D90000090C002029006E0C8693040801B4142AA
:102DA00041418D42EBD1FEF793FCC11B0320A142B0
:102DB0003FD8049909680A685207EDD5CA69120715
:102DC00039D4CA69029B1A42E6D0029A0A62EFF32A
:102DD0001082012181F3108809235B01049C24687F
:102DE00025689D43256082F31088EFF3108281F3FC
:102DF0001088049B1B689C682A4D25409D60049B9D
:102E000082F31088DA6E012A0BD1EFF3108281F37E
:102E1000108819680B681024A3430B60049B82F38D
:102E200010882021019CA1600022DA665A67227076
:102E3000E16005B0F0BD08250D62EFF31081009848
:102E400080F3108809225201049B1B681C6894437C
:102E50001C6081F31088EFF3108180F31088049ACE
:102E6000126893680F4C1C40049B946081F3108897
:102E7000D96E01290CD1EFF31081012282F3108861
:102E80001A6813681024A3431360049B81F310880D
:102E90002021019A91600021D96659671170D5608F
:102EA00005B0F0BDFEFFFFEF80B50248FFF7B6F8B2
:102EB00080BDC0467400002080B50848FFF7AEF81A
:102EC00080BDC04680B582B00190044801A90122AE
:102ED0006423FFF777FB019802B080BD0801002052
:102EE00090B0FEF703FCFFF70FFDFFF735FCFFF78F
:102EF000CFFCFFF799FCD74800F096FEFDF71EFEC9
:102F0000FDF7F0FED44F7861D449086648668866BC
:102F1000C866086748678867C86708644864886443
:102F2000C864086548658865C86508624862886243
:102F3000C862086348638863C86308604860886043
:102F4000C860086148618861C8611F20069000015F
:102F5000B96A00240818B862F96A61413A6BC04B3B
:102F6000D5183D63F9627A6B079462417A63EB0E80
:102F70005201D41802460B46FDF7E0F86A01101A18
:102F80008C412146FDF7FBF9B860B6A000F04CFE7D
:102F9000BFA000F049FE0120C74E05460A900890E8
:102FA00006E00B9841023046FEF781FB2C46099D56
:102FB00001200B9041033046FEF774FB0646E8B251
:102FC000864202D0FEF784FB07900898C0B2301A00
:102FD00045424541FEF77CFB0799401A33280A9881
:102FE00000D3284600282BD1002E089628D1FDF7C3
:102FF00079FE78619949086648668866C8660867F8
:1030000048678867C867086448648864C864086556
:1030100048658865C865086248628862C862086356
:1030200048638863C863086048608860C860086156
:1030300048618861C8610B983880002008907860EA
:103040000996FDF72EFE79688A00844B9850481C3B
:10305000C117C90E4118069A9143411A7960387810
:10306000002806D1002904D10B98387000200C905C
:1030700005E000250C9500282E460A9835D03946E3
:103080001C313A4620320CA8FDF7E6FE0C9D28467E
:10309000FDF78BF9FDF7E4FC0646F8698749FDF773
:1030A00047F9002820D10B98C107386A884341218D
:1030B0000906FDF73DF9002854D10020797802294E
:1030C00016D1FC6830462146FDF7A1F80B99C907D7
:1030D00088437B49FDF71EF9002815D10020787040
:1030E0003878002813D155E00A9879780229E8D079
:1030F00001292ED0002907D1002847D10B987870DC
:10310000FEF7E6FA386134463878002842D028467F
:10311000FDF74BF97969401AC1174840401A6A49CE
:10312000884237D8B8780028634E00D183E0FEF794
:10313000CFFAB969401A6549884200D280E0FDF7AC
:10314000D1FD786100247C707878C0B202287BD0F1
:1031500027E000280BD0002078703446387800280B
:10316000D5D117E00A9879780229C1D1A9E7FEF7ED
:10317000AFFA3969401A5349884207D30220787060
:10318000FE60344638780028C1D103E034463878F0
:103190000028BCD10020B870474E7878C0B2022811
:1031A00052D00025B878002800D12546FEF790FAC5
:1031B000796A401A652800D2F3E6F869FDF70EF93E
:1031C00005900491386AFDF709F93E4607460C461A
:1031D0002846FDF703F902460598009004980190EF
:1031E00002973746344E039439A00B4600F08AF814
:1031F00028464249FDF713F8FDF7D7F80DA94872A4
:10320000020A0A72020CCA71000E8871002048710D
:10321000202008718220C87007208870A52048707F
:103220005A2008700A2264233548FFF7CBF9FEF7CD
:103230004FFA7862B5E60B98B870FEF749FAB861B4
:103240007878C0B20228ACD12546B8780028ADD134
:10325000ABE7C0461D3D0008380000209C0100205F
:10326000B02800000D0A53697374656D6120707297
:103270006F6E746F2E2042616C616E6361207661A7
:103280007A69612065207461726164612E0D0000AD
:10329000447269766572204457494E20496E6963CD
:1032A00069616C697A61646F206E61205553415287
:1032B00054312E0D00000000000800500000204294
:1032C000CDCC4C3DE9030000DB050000B90B00004C
:1032D0005065736F3A20252E3366207C2053696732
:1032E0006D613A20252E3266207C20536C6F70650C
:1032F0003A20252E32660D0A0000000000007A44B4
:10330000740000200FB410B503A9044B044A0298BE
:1033100000F0EEF810BC08BC04B01847C52E000839
:10332000000000202021020C01D010211046020ACA
:1033300001D010460839020901D01046091F820841
:1033400001D01046891E420801D0881E7047081A15
:10335000704702E008C8121F08C1002AFAD170475E
:103360007047002001E001C1121F002AFBD1704705
:10337000014908607047000004000020F0B51FB448
:1033800086B00998089A030D0021024314D05148D1
:10339000514A1818504305141198012810981AD052
:1033A000281A401C00264D4F4D490096019104906B
:1033B000002812DA444211E01198012449A301289F
:1033C00001D11098C1430698119A84600360C260CD
:1033D00041600BB0F0BD4042E4E704462105002007
:1033E0003F4A001C51410391029012E0E00707D0D0
:1033F00032463B4601990098FDF772F90191009021
:1034000032463B4610461946FDF76AF906460F4616
:103410006410002CEAD10498039B0028029A0999B1
:10342000089806DAFDF75CF9019B009AFDF758F958
:1034300005E0FDF7BDF9019B009AFDF7B9F90446D7
:103440000E460022284BFDF74BFA03D80020C0435C
:10345000014607E00022254B20463146FDF78EF855
:10346000FDF71EFA102409E0002C0ADB0A220023D3
:10347000FCF7E7FF079B30321A55641E02460A43E9
:10348000F2D11122641C079B121B1C19119B012BEA
:1034900003D0012308430ED10AE0084304D01120D1
:1034A00010900020119077E71098151A6D1E0BE010
:1034B0001098824202DD00236D1C03E0824201DA93
:1034C00000236D1E002BEED0069811998260C1601A
:1034D00030C07EE701FCFFFF104D000000001440EB
:1034E0000000F03F300000000000F0430000E03F2B
:1034F000FFB597B00646002518E2252877D10024AD
:103500002746FD49049400E00443761C32780120EC
:10351000203A90400842F7D130782A280ED0022273
:10352000307801463039092916D804990A235943BD
:10353000303940181443761C0490F1E7189802C8FB
:1035400004911890002904DA012040030443484202
:10355000049002200443761C30782E2814D10420D5
:1035600004437078761C2A2809D11898761C80C8E4
:10357000189009E00A214F43303FC719761C307874
:10358000014630390929F5D930786C2810D006DC8D
:103590004C281AD068280ED06A2817D104E0742865
:1035A00013D07A2812D110E00120400504430CE02A
:1035B0000121090501E0032109050C4371788142CD
:1035C00003D1012000052418761C761C3078119058
:1035D00066280BD013DC58287DD009DC00287BD06E
:1035E0004528F6D04628F4D047281AD1A5E118E09E
:1035F000632835D0642870D0652812D19DE17028E9
:103600006CD008DC6728F1D069287BD06E280DD0FB
:103610006F2806D1BAE073282ED0752871D078288B
:1036200059D01A9A199990476D1C7EE16002400F9B
:10363000022809D003280DD00428189801680DD05D
:103640000D60001D189070E11898EA1701680D6070
:103650004A60F6E7189801680D80F2E70D70F0E710
:1036600018986A4601781172001D18900020507257
:1036700002A80090012005E0189802C818900020C8
:103680000091C04361070DD5002101E00199491C5B
:103690000191B94212DA8142F8DB009A515C0029AB
:1036A000F4D10BE0002101E00199491C0191814214
:1036B000FADB019A0099895C0029F5D101990498F7
:1036C0001A9B471A21463846199A00F097FA019931
:1036D000401945180BE04FE02CE113E04EE0009854
:1036E00000990078491C00911A9A199990470198FD
:1036F000401E0190401CF2D1214638461A9B199A6F
:1037000010E137E00A200021009001916002410F92
:10371000022907D0189A01CA1892C21794460329A1
:1037200008D00AE01898C01DC108C90005C9189141
:10373000944607E000B2C2179446042902D140B271
:10374000C1178C4600226146944506DA0A460021DC
:10375000404291418C462D2102E0210504D52B21C8
:103760006A461173012103E0E10701D02021F7E748
:10377000029155E00A200AE0102008E01020009095
:103780000021042004430191082703E008200021C0
:10379000019100906002410F022907D0189A01CAD6
:1037A000189200229446032908D008E01898C01DFA
:1037B000C108C90005C91891944603E080B20429E4
:1037C00000D1C0B200210291210729D51199702999
:1037D00006D0009A1021019B4A401A4305D00EE002
:1037E00040216A461173012108E06146014306D079
:1037F00030216A4611731199517302210291009A86
:103800000821019B4A401A430AD16146014301D174
:10381000610705D530216A46117301217F1E02918F
:103820001199582904D035A10E910DA90D910DE0E3
:1038300037A1F9E76146019B009AFCF702FE0E9B57
:103840008C469B5C0D9A521E0D921370614601438B
:10385000F0D10D9805A9081A20300190600703D512
:1038600001200004844300E001270198874201DD24
:10387000381A00E0002001990090411802980918B8
:103880000498401A0490E00306D421461A9B199A22
:10389000049800F0B3F94519002706E003A81A9A26
:1038A000C05D199990476D1C7F1C02988742F5DB1B
:1038B000E0030CD521461A9B199A049800F09EF952
:1038C000451904E01A9A3020199990476D1C009907
:1038D000481E00900029F5DC08E00D980D9900784D
:1038E000491C0D911A9A199990476D1C0199481E0F
:1038F00001900029F1DC63E1092801003031323305
:10390000343536373839616263646566000000001B
:103910003031323334353637383941424344454605
:103920000000000000F05AF94519761C3078002894
:1039300000D0E2E528461BB0F0BD600700D40627A2
:103940001898C01DC108C90048680A680831C30F2B
:10395000DB071891190001D09CA108E0210501D5D1
:103960009BA104E0E10701D09AA100E09AA14300E5
:1039700011985B08109165280CD006DC452809D009
:1039800046281DD0472841D141E0662818D0672835
:103990003CD13CE00021112F01DB112000E0781C1C
:1039A0000191009008A911A8FFF7E8FC139905916F
:1039B0000021119A15927F1C12980197009150E0F6
:1039C0000120C00703900120019008A9009711A8C9
:1039D000FFF7D4FC139A149905920022119B0092D0
:1039E00012981593059A0192002901D0104602E021
:1039F000791C40180190381A01D5019804E0404222
:103A0000401E0090781C0190C01B029043E0012FE3
:103A100000DA01270021112F01DD112000E03846D6
:103A20000191009008A911A8FFF7A8FC139905912E
:103A3000119A0021129815920091019721070CD438
:103A40000599B94201DB019900E00191012904DDEA
:103A5000159A491E515C302906D0B84201DA011D81
:103A600005DA0121029115E00199491EEDE70028D0
:103A700005DC0099411800910199091A03E0019AA7
:103A8000411C914200DD01910099401A401C0290B6
:103A90000120C0070390200706D4029901988142B3
:103AA00002DB0020C043029000206946C87707AFC0
:103AB000012103980337C907884224D002201190BE
:103AC0002B201290039800280CDA404203902D20FE
:103AD000129007E00A210398FCF794FC30317F1E16
:103AE000039039701199481E11900029F2DC039857
:103AF0000028EFD1791E12980870307820210840F4
:103B00004530BF1E387006A8C01BC01D039010981A
:103B10000078002800D00120019941180298C017B0
:103B20000918039809180498401A401E0490E003ED
:103B300006D421461A9B199A049800F05FF845199B
:103B400010980078002803D01A9A199990476D1C94
:103B5000E00324D521461A9B199A049800F04EF8E8
:103B600045191CE00098002807DB00990598884259
:103B700003DD1598405C199901E0199930201A9AD3
:103B8000904700986D1C401C00900298401E0290C7
:103B9000002804D11A9A2E20199990476D1C01997A
:103BA000481E01900029DDDC05E038781A9A7F1C58
:103BB000199990476D1C0399481E03900029F4DC65
:103BC00021461A9B199A0498ACE600002D000000CB
:103BD0002B0000002000000000000000F8B50446A3
:103BE00000251E461746880404D405E039462020E7
:103BF000B0476D1C641EF9D52846F8BDFFB50446D4
:103C0000002581B01E46C80301D5302700E02027DB
:103C1000880404D505E038460399B0476D1C641E3E
:103C2000F9D5284605B0F0BD10B5044601E0FFF710
:103C300049F92078641C03490028F8D10A20FFF7CD
:103C400041F910BD0000002070B50546FCF76AFC84
:103C500041000446FF204908C005411AC90F07D09A
:103C600069004908401AC00F02D10120FFF780FB0C
:103C7000204670BD000000000000000000000000B1
:103C80000000000000000000000000000000000034
:103C9000000000000100000002000000030000001E
:103CA00004000000060000000700000008000000FB
:103CB00009000000000000000000000000000000FB
:103CC00000000000010000000200000003000000EE
:103CD00004000000010002000400060008000A00C1
:103CE0000C001000200040008000000101010103D1
:103CF000070100000804020408010101415649536C
:103D00004F3A2042616C616E6361206E616F206585
:103D100073746162696C697A6F752E0D000D0A2DDE
:103D20002D2D2042616C616E6361206465205072AC
:103D300065636973616F20636F6D20414453313255
:103D40003332206520446973706C6179204457498F
:103D50004E202D2D2D0D0000783D00080000002084
:103D60003800000052330008B03D00083800002041
:103D7000E8050000623300080000000000000000B9
:103D80000100000004000000001BB700000000005C
:103D9000CD970300000048420D5508000000C842BE
:103DA0006C110D0000004843218B1600000000003C
:04000005080000C12E
:00000001FF
