:020000040800F2
:1000000050050020D5000008312500088F23000886
:1000100000000000000000000000000000000000E0
:10002000000000000000000000000000352500086E
:1000300000000000000000003325000837250008FC
:10004000E7000008E7000008E7000008E7000008F4
:10005000E7000008E7000008E7000008E7000008E4
:10006000E7000008E7000008E7000008E7000008D4
:10007000E7000008E7000008E7000008E7000008C4
:10008000E70000080000000000000000E700000892
:1000900000000000E7000008E7000008E700000893
:1000A000E7000008E7000008E7000008E12A000870
:1000B000ED2A000800000000000000000000000021
:1000C0000348854600F0D0F900480047152B00088A
:1000D000500500200448804704480047FEE7FEE73B
:1000E000FEE7FEE7FEE7FEE7D5250008C1000008B1
:1000F000F8B500242546002904DA0E460124002123
:100100004042B141002B04DA1E4600235242012531
:10011000B34100F038F98C4617461E46AC4203D076
:10012000002540428D41AC46002C02D000265742AB
:100130009E4161463A46334601B0F0BDF8B50246ED
:100140004A40D40F42004B0052085B089A4202D248
:100150000246084611464A0023D0C30D4A00DDB2CC
:10016000120EAD1A202D35DA49020126490AF6058C
:100170008A19002C00D0524220214F1B1146B94051
:100180002A411018C20D9A4221D0002C17D0012DFF
:1001900008DCDA05801AD20F8019D207DBB200F032
:1001A0002AF9F8BDDA05801A012340001B06C018A1
:1001B00080185A428018CA0F1043490007E04908C6
:1001C000C2071143DA05801A80194008801800F030
:1001D0000AF9F8BD61000122511A001BF7E701225C
:1001E000D2075140AAE70122D2075040A6E70246B3
:1001F00070B54A40D30FDB0740002DD04A002AD00B
:10020000010E140E000212020919400A520A841843
:10021000E50104465443000A120A2E045043A4196F
:100220004219200CC543AA18120C0125AD03521C1B
:10023000521912047F39240400D0521C104301D4F7
:100240004000491EC2B20C06C0092018401C4008DC
:10025000802A02D003E0002070BD40084000002941
:1002600000DA0020184370BD70B502464A40D50F31
:1002700040004A00ED0740085208002814D0002A28
:1002800012D0C40DD30D41020120C0055202490A0B
:10029000520AE41A091812187D34914201D3641CE1
:1002A00000E04900002C01DA002070BD00239142DB
:1002B00001D3891A0343400849000028F7D10029D7
:1002C0000AD0914202D10121C90705E0914201D231
:1002D000012101E00121C943E005C018401900F0E7
:1002E00082F870BD0122D207002800DB101A002915
:1002F00000DB511A814201D1012070470020704774
:10030000C217C10F504010B54018CA0796230021EC
:1003100000F071F810BDC20F410040020123400AF5
:10032000DB05D207090EC0187F2901DA00207047CB
:10033000962903DC9623591AC84001E09639884073
:10034000002AF4D04042704770B50446002903D01B
:1003500000202022012310E0002801D00020C0430B
:10036000C046C0460DE02546D5408D4205D30D461A
:100370009540641B1D46954040191546521E002DA0
:10038000F1DC214670BDF0B51FB40646002082B0F6
:1003900005464024019100901BE0019922460F463A
:1003A000304600F089F8049A059B801A994110D3D1
:1003B00010461946224600F06FF8361A8F41019711
:1003C000224601200021009F00F066F838184D41B8
:1003D00000902046641E0028DFDC019B009829461F
:1003E000324607B0F0BD002904DA401C490001D1B3
:1003F00040084000704770B40024050C05D110245B
:10040000000402D1002921D01124050E01D10002DF
:100410000834050F01D10001241D850F01D1800092
:10042000A41C002801DB4000641C002908D0202502
:100430002E1B0D46F540A14000D001212943084361
:1004400001061B1B000ADB1D02D5002070BC704793
:10045000DB05181880180029F8DA401C4900F5D18E
:1004600070BC4008400070471CB50948009009481E
:10047000019005460126009C05E0E36807CC334364
:100480000C3C98471034AC42F7D3FFF71DFE000038
:10049000283300084833000810B5202A04DB014641
:1004A000203A9140002010BD914020239C1A034621
:1004B000E3401943904010BD10B5202A04DB0846E4
:1004C000203AD040002110BD0B46D340D04020241C
:1004D000A21A91400843194610BD0000F0B581B042
:1004E0000646A8480568002428462146FFF7FAFE7C
:1004F000074607480068301AFFF702FF2946FFF752
:10050000B3FE002F00D10446204601B0F0BDC04626
:1005100018000020F0B583B02B4C20260025204683
:1005200031462A4600F0E7FE0127384600F0FEFD7E
:10053000204631463A4600F0DEFE019519200601BC
:1005400001980009182817D80198401C01900198BB
:10055000B04211D20198401C01900198B0420BD2D8
:100560000198401C01900198B04205D20198401CAE
:1005700001900198B042E7D3202120462A4600F09E
:10058000BAFE02950298B04217D20298401C02901F
:100590000298B04211D20298401C02900298B042D8
:1005A0000BD20298401C02900298B04205D20298E9
:1005B000401C02900298B042E7D32021012220463D
:1005C00000F099FE03B0F0BD00040050F0B583B018
:1005D0000520040700F098FE0546C8354021204656
:1005E00000F07CFE012807D100F08EFEA842F5D96C
:1005F0000025284603B0F0BD00200090029002982C
:10060000072817D80298401C02900298072811D892
:100610000298401C0290029807280BD80298401CB0
:1006200002900298072805D80298401C0290029870
:100630000828E7D372B6009D2F4605E001994900CE
:100640000D187F1C182F4DD0019520210122204626
:1006500000F051FE0098029002980F2817D80298D7
:10066000401C029002980F2811D80298401C02905A
:1006700002980F280BD80298401C029002980F286D
:1006800005D80298401C029002981028E7D3402118
:10069000204600F023FE0546202100262046324653
:1006A00000F029FE0296691E4842484102990F292E
:1006B000C4D80299491C029102990F29BED8029907
:1006C000491C029102990F29B8D80299491C02913C
:1006D00002990F29B2D80299491C02910299102956
:1006E000E7D3ABE720210122204600F004FE02966A
:1006F00002980F2817D80298401C029002980F28E1
:1007000011D80298401C029002980F280BD802982A
:10071000401C029002980F2805D80298401C0290B5
:1007200002981028E7D320212046324600F0E3FD4E
:10073000029602980F2817D80298401C029002983F
:100740000F2811D80298401C029002980F280BD84D
:100750000298401C029002980F2805D80298401C6D
:10076000029002981028E7D30198400202D5FF209A
:100770000006054362B6284603B0F0BD0149086093
:100780007047C04610000020F0B5A5B0F4A002F0FC
:1007900029FDFFF71BFF019011900A24204600F06D
:1007A000C5FCFFF713FF00901290204600F0BEFC3E
:1007B000FFF70CFF02901390204600F0B7FCFFF704
:1007C00005FF10901490204600F0B0FCFFF7FEFEED
:1007D0000F901590204600F0A9FCFFF7F7FE0E9051
:1007E0001690204600F0A2FCFFF7F0FE0D90179047
:1007F000204600F09BFCFFF7E9FE0C901890204685
:1008000000F094FCFFF7E2FE0B901990204600F0F8
:100810008DFCFFF7DBFE0A901A90204600F086FC64
:10082000FFF7D4FE09901B90204600F07FFCFFF7F5
:10083000CDFE08901C90204600F078FCFFF7C6FE25
:1008400007901D90204600F071FCFFF7BFFE069058
:100850001E90204600F06AFCFFF7B8FE05901F903E
:10086000204600F063FCFFF7B1FE04902090204684
:1008700000F05CFCFFF7AAFE05462190204600F040
:1008800055FCFFF7A3FE06462290204600F04EFCE2
:10089000FFF79CFE07462390204600F047FCFFF739
:1008A00095FE03902490204600F040FC009B019AA6
:1008B0009342184600DAA3E01046029C8442214687
:1008C00000DBA2E01098884200DAA3E008460F9906
:1008D000814200DBA2E00E98884200DAA3E00846DD
:1008E0000D99814200DBA2E00C98884200DAA3E077
:1008F00008460B99814200DBA2E00A98884200DAA0
:10090000A3E008460999814200DBA2E008988842EA
:1009100000DAA3E008460799814200DBA2E00698CE
:10092000884200DAA3E008460599814200DBA2E094
:100930000498884200DAA3E008468542294600DB95
:10094000A2E08E42304600DAA3E0084687423946EC
:1009500000DBA2E00398884200DAA3E00846934255
:1009600000DCA2E09C42109900DDA3E01C46A142FD
:100970000F9A00DCA2E08A4200DDA3E00A460E994D
:10098000914200DCA2E00D9A8A4200DDA3E00A4613
:100990000C99914200DCA2E00B9A8A4200DDA3E0B0
:1009A0000A460A99914200DCA2E0099A8A4200DDD7
:1009B000A3E00A460899914200DCA2E0079A8A4225
:1009C00000DDA3E00A460699914200DCA2E0059A08
:1009D0008A4200DDA3E00A460499914200DCA2E0CD
:1009E0008D4200DDA3E00D46AE4200DCA2E0B7423E
:1009F000039900DDA3E03746B94200DCA1E0A1E0A5
:100A0000029C8442214600DA5CE701461098884245
:100A100000DB5BE70F99814200DA5CE701460E9844
:100A2000884200DB5BE70D99814200DA5CE7014612
:100A30000C98884200DB5BE70B99814200DA5CE7A7
:100A400001460A98884200DB5BE70999814200DA97
:100A50005CE701460898884200DB5BE70799814222
:100A600000DA5CE701460698884200DB5BE70599FF
:100A7000814200DA5CE701460498884200DB5BE7CC
:100A80008542294600DA5CE701468E42304600DBAB
:100A90005BE78742394600DA5CE701460398884203
:100AA00000DB5BE7934200DD5CE713469C42109954
:100AB00000DC5BE7A1420F9A00DD5CE721468A4239
:100AC00000DC5BE70E99914200DD5CE711460D9A70
:100AD0008A4200DC5BE70C99914200DD5CE711463D
:100AE0000B9A8A4200DC5BE70A99914200DD5CE7E1
:100AF0001146099A8A4200DC5BE70899914200DDC1
:100B00005CE71146079A8A4200DC5BE7069991424E
:100B100000DD5CE71146059A8A4200DC5BE7049938
:100B2000914200DD5CE711468D4200DC5BE7AE429E
:100B300000DD5CE72E46B742039900DC5BE7B94273
:100B400000DC3946091A36480D9102F0F1F8354EAD
:100B5000741C7D2080000E9000252B462A4616E04E
:100B6000546172616E646F2E2E2E20416775617222
:100B70006465206573746162696C69646164652E83
:100B80000D0000002D1D502D04463E4616D00F923C
:100B90001093FFF71BFD074611A847510A2000F0EC
:100BA000C5FA0F9A109BF817DB194241A742384645
:100BB00000DC2046B742E5DB3746E3E7C11B1A4CB1
:100BC0000E98814205DA0D9D854202DA17461D46D0
:100BD000F5E013480D9102F0ABF8124E771C00259A
:100BE0002B462A4604E02D1D502D074626461DD0D3
:100BF0000F921093FFF7EAFC044611A844510A2013
:100C000000F094FA0F9A109BE0171B194241BC4266
:100C1000204600DC3846B442E5DB3446E3E7C04614
:100C20008C320008FFFFFF7FC4320008011B0E98C2
:100C3000451EA94203DC0D9C844200DABCE00D9500
:100C4000DC480C9102F074F8DB4E741C00252B4636
:100C50002A4604E02D1D502D04463E4616D00F9224
:100C60001093FFF7B3FC074611A847510A2000F084
:100C70005DFA0F9A109BF817DB194241A7423846DC
:100C800000DC2046B742E5DB3746E3E7C11B0D98A1
:100C90000C9C844203DC0E98814200DA8CE0C5484B
:100CA0000C9102F045F8C44E771C00252B462A46CD
:100CB00004E02D1D502D0746264616D00F921093A6
:100CC000FFF784FC044611A844510A2000F02EFAD4
:100CD0000F9A109BE0171B194241BC42204600DCD2
:100CE0003846B442E5DB3446E3E7011B0E98814207
:100CF00002DA0C9C84425FDBAE480B9102F018F8DC
:100D0000AD4E771C00252B462A4604E02D1D502DA4
:100D10000746264616D00F921093FFF757FC04465D
:100D200011A844510A2000F001FA0F9A109BE01715
:100D30001B194241BC42204600DC3846B442E5DB88
:100D40003446E3E7011B0E980C9C844204DB0B9CA9
:100D5000844201DA81422FDB96480C9101F0E8FFD2
:100D6000954E771C00252B462A4604E02D1D502D5C
:100D70000746264616D00F921093FFF727FC04462D
:100D800011A844510A2000F0D1F90F9A109BE017E6
:100D90001B194241BC42204600DC3846B442E5DB28
:100DA0003446E3E7011B0E980B9C844215DB0C9C38
:100DB000844212DA814210DA17461D467F4C142213
:100DC000002328463946FFF793F90146944801600D
:100DD000204601F0ADFF25B0F0BD76480B9101F043
:100DE000A7FF754E771C002529462A4604E02D1DD5
:100DF000502D0746264616D00F921091FFF7E6FBBE
:100E0000044611A844510A2000F090F90F9A109955
:100E1000E01709194241BC42204600DC3846B44282
:100E2000E5DB3446E3E70D46011B0E980C9B83423D
:100E300006DB0B9B834203DA814201DA1746BDE7EA
:100E40005C480C9101F074FF5B4E771C00252B462B
:100E50002A4604E02D1D502D0746264616D00F9237
:100E60001093FFF7B3FB044611A844510A2000F089
:100E70005DF90F9A109BE0171B194241BC422046B6
:100E800000DC3846B442E5DB3446E3E7011B0D984D
:100E900081420E9C05DC0B98A04202DB0C98A0421C
:100EA0008ADB44480B9101F043FF43494A1C00266A
:100EB0003546374604E0361D502E0246214616D0F0
:100EC0000F921091FFF782FB044611A884510A206B
:100ED00000F02CF90F99E0172D1947418C4220465C
:100EE00000DC084610998C42E5DB0C46E3E7011B69
:100EF0000C980E9A9042314C0D9805DB814203DC30
:100F00000B9A824200DC5AE72A4801F011FF2CA01C
:100F100002F068F91298C117119AD31710184B41B3
:100F20001399CA1740185A411499CB1740185341C6
:100F30001599CA1740185A411699CB1740185341B2
:100F40001799CA1740185A411899CB17401853419E
:100F50001999CA1740185A411A99CB17401853418A
:100F60001B99CA1740185A411C99CB174018534176
:100F70001D99CA1740185A411E99CB174018534162
:100F80001F99CA1740185A412099CB17401853414E
:100F90002199CA1740185A412299CB17401853413A
:100FA0002399CA1740185A412499CF174518574119
:100FB00013A404E78C320008FFFFFF7FC43200084F
:100FC000415649534F3A2042616C616E6361206E15
:100FD000616F206573746162696C697A6F752E2028
:100FE0005573616E646F20756C74696D61206D65F9
:100FF00064696120636F6D6F20746172612E0D00F2
:101000005461726120636F6E636C75696461212045
:101010004F6666736574203D20256C640D0A0000E0
:101020001800002072B6054C01204102204600F055
:101030005AF9C82000F07AF8F6E7C04600080050D8
:1010400070B500282CD0014624314A78022A29D1D3
:10105000046822680E239A432260426C1568314B63
:101060001D4015602568012295432560046C1C25F0
:1010700025401446AC402C4D2E6826432E60846CCF
:10108000C56C6560046D002C05D025681D40256089
:10109000436D806D58604A70002000220A7070BD58
:1010A000012070BD0422C263012000220A7070BDBD
:1010B00070B5242101244454014624314A78022A7F
:1010C0002BD103681A680E24A2431A601C680122FF
:1010D00094431C60446C2568124B1D402560046CD1
:1010E0001C2525401446AC400F4D2E6826432E602B
:1010F000846CC56C6560046D002C05D025681D40AE
:101100002560436D846D5C6000240C704A70816BB7
:10111000002900D08847204670BD0421C1632046C5
:1011200070BDC046FFFEFFFF04000240B0B504469C
:1011300000F0EAF80546601C02D0904800782418B8
:1011400000F0E2F8401BA042FAD3B0BDF0B58AB07F
:10115000069009910B68002B00D1B4E05B4806991A
:10116000814201D0062000E005200B2212070699DB
:1011700089180A22D1410091042900D300900698D1
:101180002030019000252E46079529460FE01A438E
:1011900062600899491C099803681846C8400835D8
:1011A000B61C079A121D0792002800D18BE001247B
:1011B00020460891884003400393EAD0049509999A
:1011C0004A6810211143122915D11C21079A114098
:1011D00005960F2632468A40089BDB089F00019B3C
:1011E000DD599543099A12693240059E8A402A4387
:1011F000DA5109994A68032311461940B140029314
:10120000B3403746069E35689D430D4335603E46E4
:10121000D9430591122A049D15D894402E490C42B9
:101220000FD0069CA168059B1940099BDB68B34061
:101230000B43A3601109089B9940636883430B43E8
:101240006360032AA5D0069BD868059908400999D0
:101250008968B1400143D960D0009AD51820284050
:101260000F218140089A029B9A43194CA218136ED1
:101270008B4300998140194311661648026809980A
:101280004068C10302D5039B1A4301E0039B9A43C4
:1012900010490A604A68810301D51A4300E09A4365
:1012A0000C494A602268C10205D51A43226062686F
:1012B000800206D56BE79A4322606268800200D5FF
:1012C00065E79A4364E70AB0F0BDC04600140050D9
:1012D000001802408018024006000600006908401D
:1012E000411E8841704742690B4693430A401104EE
:1012F000C91881617047002A02D0182281507047B6
:101300002822815070470000054800687047C04699
:101310001A48007802490A68101808607047C046E9
:101320004801002080B5032000F008F8002801D013
:10133000012080BD00F024F8002080BD70B50F4E64
:1013400031780124002916D005467D20C000FEF723
:10135000FBFF0146F0480068FEF7F6FF00F0BAFB1D
:10136000032D08D8002806D10024E0432946224650
:1013700000F028F87560204670BDC04604000020CB
:1013800082B009484168012211434160416811401F
:1013900001910199110702680A4302600068084040
:1013A0000090009802B070473C100240002805D41D
:1013B0001F21084001218140014801607047C0465B
:1013C00000E100E0002805D40322034693430A4AC3
:1013D0009A1803E00C220240064BD2188007C00E78
:1013E0008901C9B28140FF238340106898430843B4
:1013F0001060704714ED00E000E400E0F0B585B047
:101400000446007840064C4E01D4002035E001200F
:1014100001073746203F3A6803910A40029207D1FC
:101420003968039A1143396039681140049104996D
:10143000032101910A023168114010D0E269914202
:101440000DD0316800043268024332603268824352
:1014500032600846394A10403060C8075AD13068B7
:1014600036490840E16901433160002002990029B2
:1014700003D13968039A914339602168CA070BD1B7
:101480008A0713D48A061CD40A0725D44A072DD408
:10149000090636D405B0F0BD3246083A1368032574
:1014A000AB43A5681D4315608A07EBD503221203E1
:1014B0003346083B1D689543E2682A431A608A0652
:1014C000E2D5032292073346083B1D689543A26983
:1014D0002A431A600A07D9D501221203331F1D6857
:1014E000954362692A431A604A07D1D503229203C1
:1014F0003346083B1D68954322692A431A60090652
:10150000C8D55C3E3168E022914362680A4332608C
:1015100005B0F0BDFFF7F8FE0546306880079ED4A1
:10152000FFF7F2FE401B7B498842F6D901980299E9
:1015300000299ED0A1E7C0465C100240FFFCFFFFDF
:10154000F0B583B00D460146012000296BD0029111
:1015500001906F48006807273840854215D96C49CB
:101560000868B843284308606A4CFFF7CDFE06467A
:10157000674800683840A84207D0FFF7C5FE801BC7
:10158000A042F5D9032003B0F0BD029B1868810783
:101590009F4C10D5410707D57B21090222688A4359
:1015A0000B210902511821600F21090222688A4388
:1015B000D96811432160C0071AD1554800683840E6
:1015C000854232D252490868B84328430860514CDA
:1015D000FFF79AFE06464E4800683840A84224D0DD
:1015E000FFF792FE801BA042F5D9032003B0F0BDA7
:1015F0002246083A10681C2188439968014311600B
:101600005968032943D8880001A31B5801989F46B5
:101610002116000887160008771600087F160008B4
:101620001268520537D403B0F0BD029A1078400713
:10163000774C05D538032168814310690843206041
:1016400020460838016822689206520F06D02268A8
:1016500038200240082A07D16E4842E00068800422
:10166000420F6D48D0403CE022680240202A2AD137
:101670000120C00335E012681202D4D50BE0A26D40
:101680009207D0D507E012689203CCD503E0606DD5
:1016900080070198C7D52068B84308432060FFF74A
:1016A00033FE064620683821014002984068C00099
:1016B000814282D0FFF728FE801B16498842F1D96B
:1016C000032003B0F0BD22680240182A02D17D2019
:1016D000000206E022680240102A01D0002000E04B
:1016E0004D48C906490F491CFEF72EFE216889099D
:1016F0003C220A402B4989581F220A40D040F24917
:101700000860F2480068FFF719FE03B0F0BDC0465C
:1017100000200240881300000C00002010B53C4C53
:1017200020460838016822689206520F06D02268C7
:1017300038200240082A07D136481AE000688004A1
:10174000420FE048D04014E022680240202A02D133
:101750000120C0030DE022680240182A02D17D203A
:10176000000206E022680240102A01D0002000E0BA
:10177000D448C906490F491CFEF7E6FD21688909CE
:101780003C220A40074989581F221140C840CE49CF
:1017900008602168890A1C230B400349C95811407D
:1017A000C84010BD043200084432000880B5184813
:1017B0000246083A116803689B065B0F06D003686F
:1017C00038221340082B07D112481AE01068800411
:1017D000420FBC48D04014E003681340202B02D1D4
:1017E0000120C0030DE003681340182B02D17D20B7
:1017F000000206E000681040102801D0002000E040
:10180000B048C906490F491CFEF79EFD80BDC04681
:101810000810024000127A00006CDC02F0B581B0C2
:1018200004460120002C00D148E100902078C00738
:10183000A34E08D0B068382202406168082A4BD114
:10184000002900D190E02078800721D4207800077B
:1018500009D5B06838220240A169182A00D086E074
:10186000002900D180E0207840070AD5B0683822EE
:101870000240A168202A00D08DE00029009800D104
:101880001CE120780025C00637D4284601B0F0BD01
:10189000E268B0688006400F47D0306801218F02AF
:1018A000002A00D184E00722D20290432269024339
:1018B00032600802316801433160FFF725FD0546BB
:1018C0003068384200D09BE0FFF71EFD401B022825
:1018D000F6D9032001B0F0BD306801235F041A047B
:1018E000914207D005252D04A94272D199040843DD
:1018F000306030681043306073E030680121CF05FC
:10190000E2698905002A00D183E008433060FFF7CF
:10191000FBFC044630683842B7D1FFF7F5FC001BEA
:101920000228F7D9032001B0F0BD002A1CD07F2087
:1019300000027168814360690002084370600720FB
:10194000C0023168814320690843306030688004F8
:10195000400F5C49C1405C4801605C480068FFF78B
:10196000EDFC002800D171E7009801B0F0BD306EA9
:1019700000295ED0012108433066FFF7C5FC05460B
:10198000306E800700D56EE7FFF7BEFC411B0320D9
:101990000229F5D992E0F06D012905D0052959D128
:1019A00004210843F065F06D01210143F1655AE01F
:1019B000090288433060FFF7A7FC054630683842CB
:1019C00000D143E7FFF7A0FC411B03200229F5D912
:1019D00074E090433060980432688243326000299A
:1019E00050D0FFF791FC05463068384200D02AE716
:1019F000FFF78AFC401B6428F6D9032001B0F0BD34
:101A00007F200002716881436069000208437060B2
:101A10001CE788433060FFF777FC044630683842A3
:101A200000D132E7FFF770FC011B03200329F5D337
:101A300044E0012188433066FFF766FC0546306EBE
:101A4000800700D40FE7FFF75FFC411B032002294A
:101A5000F5D933E001229043F065F06D0422904304
:101A6000F06500291CD01A4FFFF74EFC0546F06DBB
:101A7000800700D505E7FFF747FC411B0320B9426B
:101A8000F5D91BE0FFF740FC05463068384200D12D
:101A9000D9E6FFF739FC411B03206429F5D90DE095
:101AA0000B4FFFF731FC0546F06D800700D4E8E6E8
:101AB000FFF72AFC411B0320B942F5D901B0F0BD64
:101AC00000100240006CDC020C0000200800002026
:101AD00088130000401E010E01D001207047074905
:101AE000074A5060074803680B40032189075918CB
:101AF000016000209060072111607047FFFFFF0028
:101B000010E000E020ED00E0B0B58421415C012947
:101B100001D10220B0BD0146843124224A6002680E
:101B2000136814680125AC4314606C07A343136069
:101B30000022426610460A7020224A60B0BD7047FB
:101B400070470000F0B583B0054668352A7F012A4A
:101B500002D1022003B0F0BD06468836242232604E
:101B600007683A6802923A680124A2433A60072261
:101B70005206BB6893430B43BB60406E002820466F
:101B800015D0B8680190B868400F2E49095C2E4AFC
:101B9000105CC000FEF7D8FB044601980001400F1E
:101BA0002849095C284A105CC000FEF7CDFB28805C
:101BB0006C8002983860002028772021316003B0C3
:101BC000F0BDC046F0B583B0054668352A7F012ACE
:101BD00002D1022003B0F0BD0646883624223260CE
:101BE00007683A6802923A680124A2433A600722E1
:101BF0005207BB6893430B43BB60406E00282046EE
:101C000015D0B8680190B868400F0E49095C0E4ABB
:101C1000105CC000FEF798FB044601980001400FDD
:101C20000849095C084A105CC000FEF78DFB28805B
:101C30006C8002983860002028772021316003B042
:101C4000F0BDC046843200087C32000870477047FF
:101C500070470000F0B589B00368DF6920250121D5
:101C60000691CE0232462F323A4019680890044657
:101C7000803405939B68202A0495079710D1084665
:101C80002840012212071A4080181F4616D00898D3
:101C9000416F002900D158E10898884709B0F0BD8C
:101CA00030460F3007421F4608D0CF480840069AFA
:101CB0001207551C3D40281800D091E003941026CF
:101CC0000846304042424241079D28463040444247
:101CD000444114430898C06E401E421E9041204368
:101CE00037D001240126B2053A4050425041EA0261
:101CF0002246059B00D50246002A00D1A6E0280610
:101D000006D580200840F2051740C01900D0BDE17B
:101D100040230A461A40504250416A06224600D5E6
:101D20000246002A00D14AE1B2070A40504250411F
:101D30002A02224600D50246002A00D1B1E100293C
:101D400000DAB3E1E80100D5B4E1002C00D0FCE0FA
:101D5000B4E1089C5C34059806628068400600D5B2
:101D60007BE0618822886088002800D1EDE08A420B
:101D700000D1EAE0EFF310800790012383F310888D
:101D8000092045010898374606683468AC4334603A
:101D9000079C84F31088EFF31084079483F3108872
:101DA0000568AE68C84C3440AC60079C84F310886A
:101DB000049C039DEC6000244467C466EFF3108428
:101DC00083F3108803681D68BD431D6084F3108889
:101DD00002230367511A89B2FFF7B1FE09B0F0BDC3
:101DE000009203940798069B184042424241180211
:101DF00001910840444244411443059B05D1012010
:101E00001862039C22690243226101203C46029031
:101E100004406042604107998A07069A00D502464D
:101E2000002A06D1022018620398016904220A439D
:101E300002616042604107994A07069A5ED4002A0F
:101E4000039C5FD00798000765D46EE030051862E8
:101E50000898FFF7FCFE09B0F0BD228803980068DF
:101E60000068436899B2002900D19CE0914200D3F8
:101E700099E063800068800635D4EFF31082012179
:101E800081F31088924B20330898056837462E68F6
:101E90001E402E6082F31088EFF3108281F31088C9
:101EA00003689D688D439D6082F31088EFF3108274
:101EB00081F3108803689D684026B5439D6082F3D6
:101EC0001088039B049ADA600022C266EFF3108246
:101ED00081F3108800680168B943016082F31088BB
:101EE0001868FFF7ADF80221089801672188628819
:101EF000891A89B2FFF723FE09B0F0BD0246002A15
:101F0000039C9FD1042018622069022202432261AF
:101F10000798000709D50198049A1040054304D09A
:101F20000820186222690243226102988206019900
:101F30000A4050425041079A324208D10698002880
:101F4000049A09D0206900280DD109B0F0BD06908F
:101F500006980028049AF5D11E622069104320617A
:101F600020690028F1D0079810400DD0114000984A
:101F700007400F4308D00898416F002904D0089CFF
:101F8000204688472368039C2069282202409868DD
:101F900040210840801829D10898FFF759FE0020F9
:101FA000206109B0F0BD8A42CFD100688006CCD54F
:101FB000022208980267FFF7C2FD09B0F0BDEFF3F7
:101FC000108186F310880898026814689C43146096
:101FD00081F31088002181670399049A8A6000F0D8
:101FE000D5F909B0F0BDC04620010004EFF3108020
:101FF000029E86F3108809225201089B1C682568FE
:102000009543256080F31088EFF3108086F31088E5
:102010001A6894682C4D2540956080F31088D86E1E
:1020200001280CD1EFF31082029880F310880898F1
:10203000006803681024A343036082F31088039CA4
:102040000498E0600020089AD066506710688068A5
:10205000400621D5EFF31082029880F3108808988B
:10206000006883688B43836082F3108821680029AD
:1020700012D0164888630846FFF71AF8002800D1E6
:1020800063E72068816B884709B0F0BD0898816FCD
:10209000002900D000E658E70898FFF7D9FD09B0FD
:1020A000F0BD0898FFF7D2FD09B0F0BD0026E801A9
:1020B00000D44AE63446002C00D046E70898FFF7E3
:1020C0003FFD09B0F0BDC046FEFFFFEF89270008C5
:1020D000DFFEFFFFB0B500281ED00446054684355C
:1020E0006868002804D100202870204600F02AF8F3
:1020F00024206860206801680125A9430160A06A66
:10210000002802D0204600F06DFA204600F044FB83
:10211000002803D02846B0BD0120B0BD0920C00270
:1021200021684A6882434A6088682A22904388600E
:102130000868012202430A60204600F0BDFA054605
:102140002846B0BDB0B58EB000240D940C940B940D
:102150000A940994089407940694059404940394AB
:10216000029401940068F14988421FD0D549884201
:1021700042D10125019501A8FFF740F9002801D0BF
:10218000FEF750FFA803B449CA680243CA60CA6890
:1021900002400092009808682843086008682840B8
:1021A000009000981B250420032112E00120410427
:1021B000A94A93680B43936093680B40009300997E
:1021C00011680143116011680140009100991C25BC
:1021D0000C210D900C940B9402200A90099105207B
:1021E000000709A9FEF7B2FF284621462246FFF75D
:1021F000E9F82846FFF7DAF80EB0B0BDF0B585B0C3
:10220000074688203858202810D1012000290BD0FB
:10221000002A09D001200403BD68A54209D1CD07D9
:1022200007D03D69002D04D105B0F0BD022005B0F6
:10223000F0BD019302913D46543539468831002066
:10224000039088602120009108601646FFF75CF833
:1022500004906E802E80B868A04202D138690028B0
:102260005ED0029C019E039A3968688800285ED07F
:10227000701C454B2ED0002E49D00392C869000631
:1022800008D4FFF741F80499401AB04267D839687A
:102290000868F3E7002C03D020788862641C07E00C
:1022A000039A1088384B18408862921C03920024CD
:1022B0006888401E688068880028DFD137E0108871
:1022C00018408862921C00246888401E68806888D4
:1022D00000282CD0C869000608D4C869000605D4B7
:1022E000C869000602D4C8690006F3D5002CE6D000
:1022F00020788862641CE7E7108818408862921C86
:1023000000246888401E6880688800280FD0C8694B
:10231000000622D5002CEFD020788862641CF0E7FC
:102320000024029A019E396868880028A0D1CA69F1
:102330000020520614D4002E0FD0721C15D1009B21
:10234000CA6952060DD4CA6952060AD4CA6952062D
:1023500007D4CA695206F3D503E0FEF7D5FF032080
:10236000009B2021196005B0F0BD0446FEF7CCFFAC
:102370000499401AB042F2D838680168C069400632
:10238000F4D52046ECE7C046FF0100007047FEE7A9
:10239000F0B589B000240894079406940594049439
:1023A0002D48016804221143016001681140039126
:1023B000039901680127394301600168394003919D
:1023C00003990168022211430160006810400390E4
:1023D0000398052000070190202529462246FEF794
:1023E0008AFF790202917A482246FEF784FF1B4851
:1023F000294600952246FEF77EFF0697059478034E
:10240000049004AE72483146FEF7A0FE079406948D
:1024100005970495019D28463146FEF797FE0694E0
:1024200005944020049028463146FEF78FFE07941D
:10243000069405970298049065483146FEF786FE9B
:102440000794069405970098049004483146FEF7D7
:102450007DFE09B0F0BDC0463410024000040050BB
:1024600010B5174800210C22164B016241628162AF
:10247000E124640218C0016041608160C2600161B2
:1024800041610838FFF726FE002801D0FEF7CAFD9B
:102490000B480021FFF796FB002801D0FEF7C2FD94
:1024A00007480021FFF74EFB002801D0FEF7BAFDD8
:1024B0000348FFF729FB002801D0FEF7B3FD10BD4C
:1024C0001C0000200038014010B5174800210C22E4
:1024D000164B016241628162E124640218C001600E
:1024E00041608160C260016141610838FFF7F2FD1F
:1024F000002801D0FEF796FD0B480021FFF762FB94
:10250000002801D0FEF78EFD07480021FFF71AFBD7
:10251000002801D0FEF786FD0348FFF7F5FA0028F2
:1025200001D0FEF77FFD10BDB00000200044004048
:10253000FEE77047704780B5FEF7EAFE80BD0000F9
:1025400070B58EB000240D940C940B940A940994E9
:1025500008940794069405940494039402940194B7
:102560001A4801680726B143016040200B900125FD
:1025700028030A90280209900220069006A8FFF777
:102580004DF900280AD072B66C02114D284621463A
:10259000FEF7A9FEC820FEF7C9FDF7E702940196F1
:1025A00003940494059401A82146FEF7C9FF00286E
:1025B0000AD072B66C02064D28462146FEF793FEFD
:1025C000C820FEF7B3FDF7E70EB070BD0020024053
:1025D000000800500120C006014908607047C0464D
:1025E00008ED00E0B0B5816A0A070CD4CA0714D11F
:1025F0008A071CD44A0724D4CA062CD48A0634D4A9
:102600004A063CD44CE00122D20303685C68944340
:10261000826B22435A60CA07EAD00122520403683F
:102620005C689443C26A22435A608A07E2D5012259
:10263000120403685C689443026B22435A604A07A1
:10264000DAD50122920403685C689443426B22430A
:102650005A60CA06D2D50122120303689C689443CB
:10266000C26B22439A608A06CAD5012252030368CC
:102670009C689443026C22439A604A0610D501225A
:102680001305026854689C43456C2C4354609D427A
:1026900006D103235B0554689C43836C234353603A
:1026A000090607D50121C904026853688B43C06C31
:1026B00018435060B0BD0000F0B583B00446064634
:1026C00084360025F560FEF71FFE0346206801688A
:1026D000090721D502952B480090012569050022A4
:1026E00020461F4600F01AF9002812D0EFF31080A0
:1026F00085F3108821680A6880239A430A6080F372
:102700001088032020228821029D6250357003B07A
:10271000F0BD20683B46029D0068400726D5194859
:1027200000900127B9050022204600F0F7F80028A4
:102730001CD0EFF3108087F310880921490122682B
:1027400013688B43136080F31088EFF3108087F3D6
:10275000108821688A68BA438A6080F31088032051
:1027600020228C216250357003B0F0BD20207060B3
:10277000B060E56670212A4628466250357003B085
:10278000F0BDC046FFFFFF0180B5806A5E210022D8
:102790004252FFF75DFA80BDF0B581B00446006893
:1027A0000168514A0A40A16823690B4365691D43CA
:1027B0001543E1690D430560032212034368934307
:1027C000E2681A434260A269236A13438268474D54
:1027D00015401D438560C26A0F239A43676A3A43D6
:1027E000C262434A904209D0424A904208D14248CC
:1027F000406D8007000F41A2125802E0002200E065
:102800001022264668360125E803814210D1082AA5
:1028100061D8C0467A44127952009744045C195C2E
:102820002B5C5C5C3000FEF779FF002826D151E07C
:10283000082A50D87A44127952009744044C124C1A
:10284000354C4C4C3A00FEF769FF002830D141E08E
:10285000294800680006400F411C2C48FDF774FD14
:102860000DE0254800680006400F411C2748FDF791
:102870006BFD1EE0FEF79AFF00282BD0676A7900F7
:10288000234A515AFDF760FD400061684A0810185C
:10289000FDF75AFD0246103A1E498A421BD20140FA
:1028A0000007400F084313E0FEF780FF002811D017
:1028B000676A7900164A515AFDF746FD61684A0871
:1028C0001018FDF741FD01461039124A914202D21B
:1028D0002168C86000251048306000206067A0674C
:1028E000284601B0F0BDC046F369FFCFFFF4FF11E9
:1028F0000044004000380140001002400000000089
:10290000040000000200000008000000006CDC026F
:1029100064320008F0FF000001000100F0B585B04E
:102920001F4615460E460368D9693140891B4A4245
:102930004A410021954222D10A9C002C22D00391C9
:10294000611C24D1D9693140891B4A424A419542D0
:1029500031D1D9693140891B4A424A4195422AD135
:10296000D9693140891B4A424A41954223D1D969EC
:102970003140891B4A424A419542E3D01BE0084658
:1029800005B0F0BDFEF7C0FC032005B0F0BD402E41
:10299000049001D0802E14D1FEF7B6FCC01BA042DB
:1029A0000CD8049800680168C0693040801B41421F
:1029B00041418D42F0D0039805B0F0BD032005B031
:1029C000F0BD8430019001200090C002029006E02A
:1029D000C8693040801B414241418D42EBD1FEF736
:1029E00093FCC11B0320A1423FD8049909680A68DF
:1029F0005207EDD5CA69120739D4CA69029B1A4237
:102A0000E6D0029A0A62EFF31082012181F3108866
:102A100009235B01049C246825689D43256082F39B
:102A20001088EFF3108281F31088049B1B689C6868
:102A30002A4D25409D60049B82F31088DA6E012A9E
:102A40000BD1EFF3108281F3108819680B68102402
:102A5000A3430B60049B82F310882021019CA1609A
:102A60000022DA665A672270E16005B0F0BD0825E1
:102A70000D62EFF31081009880F310880922520153
:102A8000049B1B681C6894431C6081F31088EFF35F
:102A9000108180F31088049A126893680F4C1C40D0
:102AA000049B946081F31088D96E01290CD1EFF357
:102AB0001081012282F310881A6813681024A3433E
:102AC0001360049B81F310882021019A91600021FA
:102AD000D96659671170D56005B0F0BDFEFFFFEFF4
:102AE00080B59248FFF7B6F880BDC04680B508486B
:102AF000FFF7B0F880BDC04680B582B001900448B1
:102B000001A901226423FFF779FB019802B080BD7F
:102B1000B000002088B0FEF705FCFFF711FDFFF7BD
:102B200037FCFFF7D1FCFFF79BFC584800F05AFB3D
:102B3000FDF7F0FC56A000F055FB7820FEF7F6FA02
:102B4000FDF744FDFDF720FE5AA000F04BFB644862
:102B5000FDF714FE63A000F045FB01240020049063
:102B60006A4F2646039401942BE06A490860019C51
:102B7000664FFDF7D0FBFDF7B1FC05AD0021697193
:102B8000202129718221E9700721A970A52169708E
:102B90005A2129706449FDF72AFBFDF7BCFB6872D6
:102BA000010A2972010CE971000EA8710A2264233E
:102BB0005E482946FFF722FB012041023846FEF716
:102BC00092FB61033846FEF789FB0546F0B2854269
:102BD00002D0FEF799FB04902E46FEF795FB049970
:102BE000401A33280DD30398C0B2854209D0002D76
:102BF000039606D1FDF7C8FD012045490860002075
:102C00000390052000074021FEF768FB0028D8D17B
:102C1000FDF7DCFC3E4A1168002906D00021116056
:102C2000FDF76EFB3B490860A3E73A490D6804468F
:102C30002846FDF770FB201AC1174840401A029041
:102C40002046FDF75DFB074628463349FDF7CFFADE
:102C5000044638463149FDF7CAFA2146FDF76EFAB7
:102C6000044628462E49FDF7C2FA054638462D4946
:102C7000FDF7BDFA2946FDF761FA7D218900029A28
:102C80008A4200D971E720466FE7C046EB32000860
:102C9000416775617264616E646F2065737461620F
:102CA000696C697A6163616F20646F204144432ECF
:102CB0002E2E0D000D0A53697374656D61207072BC
:102CC0006F6E746F2E2042616C616E63612076615D
:102CD0007A69612065207461726164612E0D000063
:102CE0000010C245447269766572204457494E20EF
:102CF000496E696369616C697A61646F206E6120F5
:102D00005553415254312E0D000000000008005070
:102D1000140000204401002048E17A3F0AD7A33C78
:102D20009A99193FCDCCCC3E0000C8421C0000202F
:102D30000FB410B503A9044B044A029800F018F828
:102D400010BC08BC04B01847F92A00080000002095
:102D500002E008C8121F08C1002AFAD17047704764
:102D6000002001E001C1121F002AFBD170470000C2
:102D7000FFB591B00F460546002606E025280AD08B
:102D8000149A139990476D1C761C28780028F5D169
:102D9000304615B0F0BD002400940121F34A02949E
:102DA00000E004436D1C2B780846203B98401042FD
:102DB000F7D128782A280ED0022128780246303A06
:102DC000092A15D8009A0A235A43303A80180C432E
:102DD0006D1C0090F1E701CF0090002805DA01207A
:102DE00040030443009840420090022004436D1CBD
:102DF00028782E2815D10420044368786D1C2A28D1
:102E00000AD101CF6D1C02900BE002990A225143B6
:102E1000303940186D1C0290287801463039092954
:102E2000F3D928786C2810D006DC4C281AD06828F2
:102E30000ED06A2817D104E0742813D07A2812D152
:102E400010E00120400504430CE00121090501E0E8
:102E5000032109050C436978814203D10120000553
:102E600024186D1C6D1C287803906E281ED00CDC75
:102E7000632831D004DC00288AD0582811D1B2E070
:102E800064287BD069280CD178E073282DD004DC2D
:102E90006F2870D0702804D1A7E075286CD07828EE
:102EA0006BD0149A13999047761C62E06002400F31
:102EB000022807D003280AD0042838680AD0066000
:102EC0003F1D56E03868F11706604160F8E7386842
:102ED0000680F5E70670F3E7387869460874002045
:102EE000487404A80390012003E038680390002090
:102EF000C0433F1D61070FD5002101E00199491C26
:102F0000029A0191914213DA8142F7DB019A039907
:102F1000895C0029F2D10BE0002101E00199491CF4
:102F200001918142FADB019A0399895C0029F5D16C
:102F300001990098139A401A00902146149B00F0C2
:102F40003BF901998019461807E003980399007826
:102F5000491C0391149A139990470198401E0190BF
:102F6000401CF2D12146149B139A009800F014F9EA
:102F700086196D1C09E741E033E034E00A200021A6
:102F8000049005916002410F022905D001CFC217BC
:102F90009446032905D007E0FF1DFF08FF0003CF7B
:102FA00006E000B2C2179446042902D140B2C1170C
:102FB0008C4600226146944506DA0A4600214042CA
:102FC00091418C462D2102E0210504D52B216A4632
:102FD0001176012103E0E10701D02021F7E70191FB
:102FE00054E00A200BE0102009E01020049000219A
:102FF0000420044308200591029003E008200021EA
:10300000059104906002410F022905D001CF0022F2
:103010009446032906D006E0FF1DFF08FF0003CFFA
:103020008C4603E080B2042900D1C0B20021019196
:1030300021072BD50399702906D0049A1021059BEE
:103040004A401A4305D00EE040216A46117601211C
:1030500008E06146014306D030216A4611760399A3
:10306000517602210191049A0821059B4A401A4396
:103070000CD16146014301D1610707D530216A4671
:103080001176012101910299491E02910399582953
:1030900004D037A103910FA90F910DE039A1F9E7F1
:1030A0006146059B049AFDF76EF9039B8C469B5C79
:1030B0000F9A521E0F92137061460143F0D10F9880
:1030C00007A9081A20300390600704D501200004E6
:1030D0008443029801E0012002900399884201DDB7
:1030E000401A00E000204118029001980918009849
:1030F000401A0090E00306D42146149B139A0098CE
:1031000000F05AF886190020049008E006A9085C2F
:10311000149A139990470498401C761C04900199C6
:103120008842F3DBE0030CD52146149B139A0098E8
:1031300000F042F8861904E0149A30201399904761
:10314000761C0299481E02900029F5DC08E00F98D1
:103150000F990078491C0F91149A13999047761C87
:103160000399481E03900029F1DCFBE609280100C1
:1031700030313233343536373839616263646566ED
:1031800000000000303132333435363738394142AF
:103190004344454600000000F8B5044600251E469D
:1031A0001746880404D405E039462020B0476D1C3A
:1031B000641EF9D52846F8BDFFB50446002581B048
:1031C0001E46C80301D5302700E02027880404D517
:1031D00005E038460399B0476D1C641EF9D52846B2
:1031E00005B0F0BD10B5044601E0FFF785FC20787E
:1031F000641C03490028F8D10A20FFF77DFC10BDAC
:10320000000000200000000000000000000000009E
:1032100000000000000000000000000000000000AE
:103220000000000001000000020000000300000098
:103230000400000006000000070000000800000075
:103240000900000000000000000000000000000075
:103250000000000001000000020000000300000068
:1032600004000000010002000400060008000A003B
:103270000C0010002000400080000001010101034B
:103280000701000008040204080101014C6569748B
:103290007572617320696E73746176656973202835
:1032A000646966663A20256C64292E2054656E7424
:1032B000616E646F206E6F76616D656E74652E2E23
:1032C0002E0D0A0054617261206573746176656C1D
:1032D00020636F6E636C7569646121204F6666734D
:1032E0006574203D20256C640D0A000D0A2D2D2DDE
:1032F0002042616C616E6361206465205072656379
:103300006973616F20636F6D2041445331323332F2
:10331000206520446973706C6179204457494E20C0
:103320002D2D2D0D00000000483300080000002066
:1033300018000000502D000860330008180000201D
:1033400038050000602D00080000000001000000AA
:1033500004000000001BB7000000803F01000000D7
:04000005080000C12E
:00000001FF
